{
  "_format": "hh-sol-artifact-1",
  "contractName": "TransferRestrictModule",
  "sourceName": "contracts/compliance/modular/modules/TransferRestrictModule.sol",
  "abi": [
    {
      "anonymous": false,
      "inputs": [
        {
          "indexed": false,
          "internalType": "address",
          "name": "previousAdmin",
          "type": "address"
        },
        {
          "indexed": false,
          "internalType": "address",
          "name": "newAdmin",
          "type": "address"
        }
      ],
      "name": "AdminChanged",
      "type": "event"
    },
    {
      "anonymous": false,
      "inputs": [
        {
          "indexed": true,
          "internalType": "address",
          "name": "beacon",
          "type": "address"
        }
      ],
      "name": "BeaconUpgraded",
      "type": "event"
    },
    {
      "anonymous": false,
      "inputs": [
        {
          "indexed": true,
          "internalType": "address",
          "name": "_compliance",
          "type": "address"
        }
      ],
      "name": "ComplianceBound",
      "type": "event"
    },
    {
      "anonymous": false,
      "inputs": [
        {
          "indexed": true,
          "internalType": "address",
          "name": "_compliance",
          "type": "address"
        }
      ],
      "name": "ComplianceUnbound",
      "type": "event"
    },
    {
      "anonymous": false,
      "inputs": [
        {
          "indexed": false,
          "internalType": "uint8",
          "name": "version",
          "type": "uint8"
        }
      ],
      "name": "Initialized",
      "type": "event"
    },
    {
      "anonymous": false,
      "inputs": [
        {
          "indexed": true,
          "internalType": "address",
          "name": "previousOwner",
          "type": "address"
        },
        {
          "indexed": true,
          "internalType": "address",
          "name": "newOwner",
          "type": "address"
        }
      ],
      "name": "OwnershipTransferred",
      "type": "event"
    },
    {
      "anonymous": false,
      "inputs": [
        {
          "indexed": true,
          "internalType": "address",
          "name": "implementation",
          "type": "address"
        }
      ],
      "name": "Upgraded",
      "type": "event"
    },
    {
      "anonymous": false,
      "inputs": [
        {
          "indexed": false,
          "internalType": "address",
          "name": "_compliance",
          "type": "address"
        },
        {
          "indexed": false,
          "internalType": "address",
          "name": "_userAddress",
          "type": "address"
        }
      ],
      "name": "UserAllowed",
      "type": "event"
    },
    {
      "anonymous": false,
      "inputs": [
        {
          "indexed": false,
          "internalType": "address",
          "name": "_compliance",
          "type": "address"
        },
        {
          "indexed": false,
          "internalType": "address",
          "name": "_userAddress",
          "type": "address"
        }
      ],
      "name": "UserDisallowed",
      "type": "event"
    },
    {
      "inputs": [
        {
          "internalType": "address",
          "name": "_userAddress",
          "type": "address"
        }
      ],
      "name": "allowUser",
      "outputs": [],
      "stateMutability": "nonpayable",
      "type": "function"
    },
    {
      "inputs": [
        {
          "internalType": "address[]",
          "name": "_userAddresses",
          "type": "address[]"
        }
      ],
      "name": "batchAllowUsers",
      "outputs": [],
      "stateMutability": "nonpayable",
      "type": "function"
    },
    {
      "inputs": [
        {
          "internalType": "address[]",
          "name": "_userAddresses",
          "type": "address[]"
        }
      ],
      "name": "batchDisallowUsers",
      "outputs": [],
      "stateMutability": "nonpayable",
      "type": "function"
    },
    {
      "inputs": [
        {
          "internalType": "address",
          "name": "_compliance",
          "type": "address"
        }
      ],
      "name": "bindCompliance",
      "outputs": [],
      "stateMutability": "nonpayable",
      "type": "function"
    },
    {
      "inputs": [
        {
          "internalType": "address",
          "name": "",
          "type": "address"
        }
      ],
      "name": "canComplianceBind",
      "outputs": [
        {
          "internalType": "bool",
          "name": "",
          "type": "bool"
        }
      ],
      "stateMutability": "view",
      "type": "function"
    },
    {
      "inputs": [
        {
          "internalType": "address",
          "name": "_userAddress",
          "type": "address"
        }
      ],
      "name": "disallowUser",
      "outputs": [],
      "stateMutability": "nonpayable",
      "type": "function"
    },
    {
      "inputs": [],
      "name": "initialize",
      "outputs": [],
      "stateMutability": "nonpayable",
      "type": "function"
    },
    {
      "inputs": [
        {
          "internalType": "address",
          "name": "_compliance",
          "type": "address"
        }
      ],
      "name": "isComplianceBound",
      "outputs": [
        {
          "internalType": "bool",
          "name": "",
          "type": "bool"
        }
      ],
      "stateMutability": "view",
      "type": "function"
    },
    {
      "inputs": [],
      "name": "isPlugAndPlay",
      "outputs": [
        {
          "internalType": "bool",
          "name": "",
          "type": "bool"
        }
      ],
      "stateMutability": "pure",
      "type": "function"
    },
    {
      "inputs": [
        {
          "internalType": "address",
          "name": "_compliance",
          "type": "address"
        },
        {
          "internalType": "address",
          "name": "_userAddress",
          "type": "address"
        }
      ],
      "name": "isUserAllowed",
      "outputs": [
        {
          "internalType": "bool",
          "name": "",
          "type": "bool"
        }
      ],
      "stateMutability": "view",
      "type": "function"
    },
    {
      "inputs": [
        {
          "internalType": "address",
          "name": "_from",
          "type": "address"
        },
        {
          "internalType": "uint256",
          "name": "_value",
          "type": "uint256"
        }
      ],
      "name": "moduleBurnAction",
      "outputs": [],
      "stateMutability": "nonpayable",
      "type": "function"
    },
    {
      "inputs": [
        {
          "internalType": "address",
          "name": "_from",
          "type": "address"
        },
        {
          "internalType": "address",
          "name": "_to",
          "type": "address"
        },
        {
          "internalType": "uint256",
          "name": "",
          "type": "uint256"
        },
        {
          "internalType": "address",
          "name": "_compliance",
          "type": "address"
        }
      ],
      "name": "moduleCheck",
      "outputs": [
        {
          "internalType": "bool",
          "name": "",
          "type": "bool"
        }
      ],
      "stateMutability": "view",
      "type": "function"
    },
    {
      "inputs": [
        {
          "internalType": "address",
          "name": "_to",
          "type": "address"
        },
        {
          "internalType": "uint256",
          "name": "_value",
          "type": "uint256"
        }
      ],
      "name": "moduleMintAction",
      "outputs": [],
      "stateMutability": "nonpayable",
      "type": "function"
    },
    {
      "inputs": [
        {
          "internalType": "address",
          "name": "_from",
          "type": "address"
        },
        {
          "internalType": "address",
          "name": "_to",
          "type": "address"
        },
        {
          "internalType": "uint256",
          "name": "_value",
          "type": "uint256"
        }
      ],
      "name": "moduleTransferAction",
      "outputs": [],
      "stateMutability": "nonpayable",
      "type": "function"
    },
    {
      "inputs": [],
      "name": "name",
      "outputs": [
        {
          "internalType": "string",
          "name": "_name",
          "type": "string"
        }
      ],
      "stateMutability": "pure",
      "type": "function"
    },
    {
      "inputs": [],
      "name": "owner",
      "outputs": [
        {
          "internalType": "address",
          "name": "",
          "type": "address"
        }
      ],
      "stateMutability": "view",
      "type": "function"
    },
    {
      "inputs": [],
      "name": "proxiableUUID",
      "outputs": [
        {
          "internalType": "bytes32",
          "name": "",
          "type": "bytes32"
        }
      ],
      "stateMutability": "view",
      "type": "function"
    },
    {
      "inputs": [],
      "name": "renounceOwnership",
      "outputs": [],
      "stateMutability": "nonpayable",
      "type": "function"
    },
    {
      "inputs": [
        {
          "internalType": "address",
          "name": "newOwner",
          "type": "address"
        }
      ],
      "name": "transferOwnership",
      "outputs": [],
      "stateMutability": "nonpayable",
      "type": "function"
    },
    {
      "inputs": [
        {
          "internalType": "address",
          "name": "_compliance",
          "type": "address"
        }
      ],
      "name": "unbindCompliance",
      "outputs": [],
      "stateMutability": "nonpayable",
      "type": "function"
    },
    {
      "inputs": [
        {
          "internalType": "address",
          "name": "newImplementation",
          "type": "address"
        }
      ],
      "name": "upgradeTo",
      "outputs": [],
      "stateMutability": "nonpayable",
      "type": "function"
    },
    {
      "inputs": [
        {
          "internalType": "address",
          "name": "newImplementation",
          "type": "address"
        },
        {
          "internalType": "bytes",
          "name": "data",
          "type": "bytes"
        }
      ],
      "name": "upgradeToAndCall",
      "outputs": [],
      "stateMutability": "payable",
      "type": "function"
    }
  ],
  "bytecode": "0x60a06040523060805234801561001457600080fd5b5060805161196861004c60003960008181610727015281816107670152818161098d015281816109cd0152610a6001526119686000f3fe6080604052600436106101355760003560e01c806358591fb7116100ab5780638da5cb5b1161006f5780638da5cb5b1461037c578063a9fb3b35146103a4578063bcc21053146103ed578063e6f5e8071461040e578063f104a8c914610236578063f2fde38b1461042257600080fd5b806358591fb7146102f2578063715018a614610312578063726bb46514610327578063771c456f146103475780638129fc1c1461036757600080fd5b80633659cfe6116100fd5780633659cfe614610216578063372491a2146102365780634a932544146102565780634cf4d295146102765780634f1ef286146102bc57806352d1902d146102cf57600080fd5b8063013b7ce41461013a5780630694a5fb1461016f57806306fdde03146101915780632cb7e1ec146101d657806332bb1f16146101f6575b600080fd5b34801561014657600080fd5b5061015a61015536600461140c565b610442565b60405190151581526020015b60405180910390f35b34801561017b57600080fd5b5061018f61018a366004611459565b6104d7565b005b34801561019d57600080fd5b5060408051808201825260168152755472616e7366657252657374726963744d6f64756c6560501b602082015290516101669190611498565b3480156101e257600080fd5b5061018f6101f13660046114cb565b6105f7565b34801561020257600080fd5b5061018f61021136600461154e565b61063c565b34801561022257600080fd5b5061018f610231366004611459565b61071d565b34801561024257600080fd5b5061018f6102513660046115fb565b6107fc565b34801561026257600080fd5b5061018f610271366004611459565b610840565b34801561028257600080fd5b5061015a610291366004611459565b6001600160a01b03166000908152600080516020611913833981519152602052604090205460ff1690565b61018f6102ca366004611625565b610983565b3480156102db57600080fd5b506102e4610a53565b604051908152602001610166565b3480156102fe57600080fd5b5061018f61030d366004611459565b610b06565b34801561031e57600080fd5b5061018f610baf565b34801561033357600080fd5b5061018f61034236600461154e565b610bc3565b34801561035357600080fd5b5061018f610362366004611459565b610ca7565b34801561037357600080fd5b5061018f610d4b565b34801561038857600080fd5b506033546040516001600160a01b039091168152602001610166565b3480156103b057600080fd5b5061015a6103bf3660046116cb565b6001600160a01b03918216600090815260c96020908152604080832093909416825291909152205460ff1690565b3480156103f957600080fd5b5061015a610408366004611459565b50600190565b34801561041a57600080fd5b50600161015a565b34801561042e57600080fd5b5061018f61043d366004611459565b610e5b565b60006001600160a01b038516158061046157506001600160a01b038416155b1561046e575060016104cf565b6001600160a01b03808316600090815260c9602090815260408083209389168352929052205460ff16156104a4575060016104cf565b506001600160a01b03808216600090815260c9602090815260408083209387168352929052205460ff165b949350505050565b336000908152600080516020611913833981519152602081905260409091205460ff1661051f5760405162461bcd60e51b8152600401610516906116fe565b60405180910390fd5b6000805160206119138339815191526001600160a01b0383166105845760405162461bcd60e51b815260206004820152601f60248201527f696e76616c696420617267756d656e74202d207a65726f2061646472657373006044820152606401610516565b336001600160a01b038416146105ac5760405162461bcd60e51b815260040161051690611735565b6001600160a01b038316600081815260208390526040808220805460ff19169055517f408b49d9be1c914c52a0227e18a077e5a892dddf32a26cfa94a5d9708fad77189190a2505050565b336000908152600080516020611913833981519152602081905260409091205460ff166106365760405162461bcd60e51b8152600401610516906116fe565b50505050565b336000908152600080516020611913833981519152602081905260409091205460ff1661067b5760405162461bcd60e51b8152600401610516906116fe565b815160005b8181101561063657600084828151811061069c5761069c611776565b60209081029190910181015133600081815260c9845260408082206001600160a01b03851680845290865291819020805460ff191690558051928352938201529092507fe9ab2574b9b111f06f42baaa274030c7228b1dad45b248037101cd11de348240910160405180910390a150806107158161178c565b915050610680565b6001600160a01b037f00000000000000000000000000000000000000000000000000000000000000001630036107655760405162461bcd60e51b8152600401610516906117b3565b7f00000000000000000000000000000000000000000000000000000000000000006001600160a01b03166107ae6000805160206118cc833981519152546001600160a01b031690565b6001600160a01b0316146107d45760405162461bcd60e51b8152600401610516906117ff565b6107dd81610ed1565b604080516000808252602082019092526107f991839190610ed9565b50565b336000908152600080516020611913833981519152602081905260409091205460ff1661083b5760405162461bcd60e51b8152600401610516906116fe565b505050565b6000805160206119138339815191526001600160a01b0382166108a55760405162461bcd60e51b815260206004820152601f60248201527f696e76616c696420617267756d656e74202d207a65726f2061646472657373006044820152606401610516565b6001600160a01b03821660009081526020829052604090205460ff161561090e5760405162461bcd60e51b815260206004820152601860248201527f636f6d706c69616e636520616c726561647920626f756e6400000000000000006044820152606401610516565b336001600160a01b038316146109365760405162461bcd60e51b815260040161051690611735565b6001600160a01b038216600081815260208390526040808220805460ff19166001179055517f1f7b76c58fb697eb53c6c7c1becb96911516a136e24d7ced386b2355358b75a39190a25050565b6001600160a01b037f00000000000000000000000000000000000000000000000000000000000000001630036109cb5760405162461bcd60e51b8152600401610516906117b3565b7f00000000000000000000000000000000000000000000000000000000000000006001600160a01b0316610a146000805160206118cc833981519152546001600160a01b031690565b6001600160a01b031614610a3a5760405162461bcd60e51b8152600401610516906117ff565b610a4382610ed1565b610a4f82826001610ed9565b5050565b6000306001600160a01b037f00000000000000000000000000000000000000000000000000000000000000001614610af35760405162461bcd60e51b815260206004820152603860248201527f555550535570677261646561626c653a206d757374206e6f742062652063616c60448201527f6c6564207468726f7567682064656c656761746563616c6c00000000000000006064820152608401610516565b506000805160206118cc83398151915290565b336000908152600080516020611913833981519152602081905260409091205460ff16610b455760405162461bcd60e51b8152600401610516906116fe565b33600081815260c9602090815260408083206001600160a01b03871680855290835292819020805460ff191690558051938452908301919091527fe9ab2574b9b111f06f42baaa274030c7228b1dad45b248037101cd11de34824091015b60405180910390a15050565b610bb7611044565b610bc1600061109e565b565b336000908152600080516020611913833981519152602081905260409091205460ff16610c025760405162461bcd60e51b8152600401610516906116fe565b815160005b81811015610636576000848281518110610c2357610c23611776565b60209081029190910181015133600081815260c9845260408082206001600160a01b03851680845290865291819020805460ff191660011790558051928352938201529092507f767240d3c58c1058ed268ca225eb1cc93d85cf46b6e85d8d120b39921475b1c1910160405180910390a15080610c9f8161178c565b915050610c07565b336000908152600080516020611913833981519152602081905260409091205460ff16610ce65760405162461bcd60e51b8152600401610516906116fe565b33600081815260c9602090815260408083206001600160a01b03871680855290835292819020805460ff191660011790558051938452908301919091527f767240d3c58c1058ed268ca225eb1cc93d85cf46b6e85d8d120b39921475b1c19101610ba3565b600054610100900460ff1615808015610d6b5750600054600160ff909116105b80610d855750303b158015610d85575060005460ff166001145b610de85760405162461bcd60e51b815260206004820152602e60248201527f496e697469616c697a61626c653a20636f6e747261637420697320616c72656160448201526d191e481a5b9a5d1a585b1a5e995960921b6064820152608401610516565b6000805460ff191660011790558015610e0b576000805461ff0019166101001790555b610e136110f0565b80156107f9576000805461ff0019169055604051600181527f7f26b83ff96e1f2b6a682f133852f6798a09c465da95921460cefb38474024989060200160405180910390a150565b610e63611044565b6001600160a01b038116610ec85760405162461bcd60e51b815260206004820152602660248201527f4f776e61626c653a206e6577206f776e657220697320746865207a65726f206160448201526564647265737360d01b6064820152608401610516565b6107f98161109e565b6107f9611044565b7f4910fdfa16fed3260ed0e7147f7cc6da11a60208b5b9406d12a635614ffd91435460ff1615610f0c5761083b83611127565b826001600160a01b03166352d1902d6040518163ffffffff1660e01b8152600401602060405180830381865afa925050508015610f66575060408051601f3d908101601f19168201909252610f639181019061184b565b60015b610fc95760405162461bcd60e51b815260206004820152602e60248201527f45524331393637557067726164653a206e657720696d706c656d656e7461746960448201526d6f6e206973206e6f74205555505360901b6064820152608401610516565b6000805160206118cc83398151915281146110385760405162461bcd60e51b815260206004820152602960248201527f45524331393637557067726164653a20756e737570706f727465642070726f786044820152681a58589b195555525160ba1b6064820152608401610516565b5061083b8383836111c3565b6033546001600160a01b03163314610bc15760405162461bcd60e51b815260206004820181905260248201527f4f776e61626c653a2063616c6c6572206973206e6f7420746865206f776e65726044820152606401610516565b603380546001600160a01b038381166001600160a01b0319831681179093556040519116919082907f8be0079c531659141344cd1fd0a4f28419497f9722a3daafe3b4186f6b6457e090600090a35050565b600054610100900460ff166111175760405162461bcd60e51b815260040161051690611864565b61111f6111e8565b610bc1611217565b6001600160a01b0381163b6111945760405162461bcd60e51b815260206004820152602d60248201527f455243313936373a206e657720696d706c656d656e746174696f6e206973206e60448201526c1bdd08184818dbdb9d1c9858dd609a1b6064820152608401610516565b6000805160206118cc83398151915280546001600160a01b0319166001600160a01b0392909216919091179055565b6111cc8361123e565b6000825111806111d95750805b1561083b57610636838361127e565b600054610100900460ff1661120f5760405162461bcd60e51b815260040161051690611864565b610bc16112aa565b600054610100900460ff16610bc15760405162461bcd60e51b815260040161051690611864565b61124781611127565b6040516001600160a01b038216907fbc7cd75a20ee27fd9adebab32041f755214dbc6bffa90cc0225b39da2e5c2d3b90600090a250565b60606112a383836040518060600160405280602781526020016118ec602791396112da565b9392505050565b600054610100900460ff166112d15760405162461bcd60e51b815260040161051690611864565b610bc13361109e565b6060600080856001600160a01b0316856040516112f791906118af565b600060405180830381855af49150503d8060008114611332576040519150601f19603f3d011682016040523d82523d6000602084013e611337565b606091505b509150915061134886838387611352565b9695505050505050565b606083156113c15782516000036113ba576001600160a01b0385163b6113ba5760405162461bcd60e51b815260206004820152601d60248201527f416464726573733a2063616c6c20746f206e6f6e2d636f6e74726163740000006044820152606401610516565b50816104cf565b6104cf83838151156113d65781518083602001fd5b8060405162461bcd60e51b81526004016105169190611498565b80356001600160a01b038116811461140757600080fd5b919050565b6000806000806080858703121561142257600080fd5b61142b856113f0565b9350611439602086016113f0565b92506040850135915061144e606086016113f0565b905092959194509250565b60006020828403121561146b57600080fd5b6112a3826113f0565b60005b8381101561148f578181015183820152602001611477565b50506000910152565b60208152600082518060208401526114b7816040850160208701611474565b601f01601f19169190910160400192915050565b6000806000606084860312156114e057600080fd5b6114e9846113f0565b92506114f7602085016113f0565b9150604084013590509250925092565b634e487b7160e01b600052604160045260246000fd5b604051601f8201601f1916810167ffffffffffffffff8111828210171561154657611546611507565b604052919050565b6000602080838503121561156157600080fd5b823567ffffffffffffffff8082111561157957600080fd5b818501915085601f83011261158d57600080fd5b81358181111561159f5761159f611507565b8060051b91506115b084830161151d565b81815291830184019184810190888411156115ca57600080fd5b938501935b838510156115ef576115e0856113f0565b825293850193908501906115cf565b98975050505050505050565b6000806040838503121561160e57600080fd5b611617836113f0565b946020939093013593505050565b6000806040838503121561163857600080fd5b611641836113f0565b915060208084013567ffffffffffffffff8082111561165f57600080fd5b818601915086601f83011261167357600080fd5b81358181111561168557611685611507565b611697601f8201601f1916850161151d565b915080825287848285010111156116ad57600080fd5b80848401858401376000848284010152508093505050509250929050565b600080604083850312156116de57600080fd5b6116e7836113f0565b91506116f5602084016113f0565b90509250929050565b6020808252601e908201527f6f6e6c7920626f756e6420636f6d706c69616e63652063616e2063616c6c0000604082015260600190565b60208082526021908201527f6f6e6c7920636f6d706c69616e636520636f6e74726163742063616e2063616c6040820152601b60fa1b606082015260800190565b634e487b7160e01b600052603260045260246000fd5b6000600182016117ac57634e487b7160e01b600052601160045260246000fd5b5060010190565b6020808252602c908201527f46756e6374696f6e206d7573742062652063616c6c6564207468726f7567682060408201526b19195b1959d85d1958d85b1b60a21b606082015260800190565b6020808252602c908201527f46756e6374696f6e206d7573742062652063616c6c6564207468726f7567682060408201526b6163746976652070726f787960a01b606082015260800190565b60006020828403121561185d57600080fd5b5051919050565b6020808252602b908201527f496e697469616c697a61626c653a20636f6e7472616374206973206e6f74206960408201526a6e697469616c697a696e6760a81b606082015260800190565b600082516118c1818460208701611474565b919091019291505056fe360894a13ba1a3210667c828492db98dca3e2076cc3735a920a3ca505d382bbc416464726573733a206c6f772d6c6576656c2064656c65676174652063616c6c206661696c6564f6cc97de1266c180cd39f3b311632644143ce7873d2927755382ad4b39e8ae00a2646970667358221220c2ec9b3c999d79612c28a712843ba852109083e795c7c866cb7abba7db35db5464736f6c63430008110033",
  "linkReferences": {},
  "deployedLinkReferences": {}
}