{
  "_format": "hh-sol-artifact-1",
  "contractName": "CountryAllowModule",
  "sourceName": "contracts/compliance/modular/modules/CountryAllowModule.sol",
  "abi": [
    {
      "inputs": [
        {
          "internalType": "address",
          "name": "_compliance",
          "type": "address"
        },
        {
          "internalType": "uint16",
          "name": "_country",
          "type": "uint16"
        }
      ],
      "name": "CountryAlreadyAllowed",
      "type": "error"
    },
    {
      "inputs": [
        {
          "internalType": "address",
          "name": "_compliance",
          "type": "address"
        },
        {
          "internalType": "uint16",
          "name": "_country",
          "type": "uint16"
        }
      ],
      "name": "CountryNotAllowed",
      "type": "error"
    },
    {
      "anonymous": false,
      "inputs": [
        {
          "indexed": false,
          "internalType": "address",
          "name": "previousAdmin",
          "type": "address"
        },
        {
          "indexed": false,
          "internalType": "address",
          "name": "newAdmin",
          "type": "address"
        }
      ],
      "name": "AdminChanged",
      "type": "event"
    },
    {
      "anonymous": false,
      "inputs": [
        {
          "indexed": true,
          "internalType": "address",
          "name": "beacon",
          "type": "address"
        }
      ],
      "name": "BeaconUpgraded",
      "type": "event"
    },
    {
      "anonymous": false,
      "inputs": [
        {
          "indexed": true,
          "internalType": "address",
          "name": "_compliance",
          "type": "address"
        }
      ],
      "name": "ComplianceBound",
      "type": "event"
    },
    {
      "anonymous": false,
      "inputs": [
        {
          "indexed": true,
          "internalType": "address",
          "name": "_compliance",
          "type": "address"
        }
      ],
      "name": "ComplianceUnbound",
      "type": "event"
    },
    {
      "anonymous": false,
      "inputs": [
        {
          "indexed": false,
          "internalType": "address",
          "name": "_compliance",
          "type": "address"
        },
        {
          "indexed": false,
          "internalType": "uint16",
          "name": "_country",
          "type": "uint16"
        }
      ],
      "name": "CountryAllowed",
      "type": "event"
    },
    {
      "anonymous": false,
      "inputs": [
        {
          "indexed": false,
          "internalType": "address",
          "name": "_compliance",
          "type": "address"
        },
        {
          "indexed": false,
          "internalType": "uint16",
          "name": "_country",
          "type": "uint16"
        }
      ],
      "name": "CountryUnallowed",
      "type": "event"
    },
    {
      "anonymous": false,
      "inputs": [
        {
          "indexed": false,
          "internalType": "uint8",
          "name": "version",
          "type": "uint8"
        }
      ],
      "name": "Initialized",
      "type": "event"
    },
    {
      "anonymous": false,
      "inputs": [
        {
          "indexed": true,
          "internalType": "address",
          "name": "previousOwner",
          "type": "address"
        },
        {
          "indexed": true,
          "internalType": "address",
          "name": "newOwner",
          "type": "address"
        }
      ],
      "name": "OwnershipTransferred",
      "type": "event"
    },
    {
      "anonymous": false,
      "inputs": [
        {
          "indexed": true,
          "internalType": "address",
          "name": "implementation",
          "type": "address"
        }
      ],
      "name": "Upgraded",
      "type": "event"
    },
    {
      "inputs": [
        {
          "internalType": "uint16",
          "name": "_country",
          "type": "uint16"
        }
      ],
      "name": "addAllowedCountry",
      "outputs": [],
      "stateMutability": "nonpayable",
      "type": "function"
    },
    {
      "inputs": [
        {
          "internalType": "uint16[]",
          "name": "_countries",
          "type": "uint16[]"
        }
      ],
      "name": "batchAllowCountries",
      "outputs": [],
      "stateMutability": "nonpayable",
      "type": "function"
    },
    {
      "inputs": [
        {
          "internalType": "uint16[]",
          "name": "_countries",
          "type": "uint16[]"
        }
      ],
      "name": "batchDisallowCountries",
      "outputs": [],
      "stateMutability": "nonpayable",
      "type": "function"
    },
    {
      "inputs": [
        {
          "internalType": "address",
          "name": "_compliance",
          "type": "address"
        }
      ],
      "name": "bindCompliance",
      "outputs": [],
      "stateMutability": "nonpayable",
      "type": "function"
    },
    {
      "inputs": [
        {
          "internalType": "address",
          "name": "",
          "type": "address"
        }
      ],
      "name": "canComplianceBind",
      "outputs": [
        {
          "internalType": "bool",
          "name": "",
          "type": "bool"
        }
      ],
      "stateMutability": "view",
      "type": "function"
    },
    {
      "inputs": [],
      "name": "initialize",
      "outputs": [],
      "stateMutability": "nonpayable",
      "type": "function"
    },
    {
      "inputs": [
        {
          "internalType": "address",
          "name": "_compliance",
          "type": "address"
        }
      ],
      "name": "isComplianceBound",
      "outputs": [
        {
          "internalType": "bool",
          "name": "",
          "type": "bool"
        }
      ],
      "stateMutability": "view",
      "type": "function"
    },
    {
      "inputs": [
        {
          "internalType": "address",
          "name": "_compliance",
          "type": "address"
        },
        {
          "internalType": "uint16",
          "name": "_country",
          "type": "uint16"
        }
      ],
      "name": "isCountryAllowed",
      "outputs": [
        {
          "internalType": "bool",
          "name": "",
          "type": "bool"
        }
      ],
      "stateMutability": "view",
      "type": "function"
    },
    {
      "inputs": [],
      "name": "isPlugAndPlay",
      "outputs": [
        {
          "internalType": "bool",
          "name": "",
          "type": "bool"
        }
      ],
      "stateMutability": "pure",
      "type": "function"
    },
    {
      "inputs": [
        {
          "internalType": "address",
          "name": "_from",
          "type": "address"
        },
        {
          "internalType": "uint256",
          "name": "_value",
          "type": "uint256"
        }
      ],
      "name": "moduleBurnAction",
      "outputs": [],
      "stateMutability": "nonpayable",
      "type": "function"
    },
    {
      "inputs": [
        {
          "internalType": "address",
          "name": "",
          "type": "address"
        },
        {
          "internalType": "address",
          "name": "_to",
          "type": "address"
        },
        {
          "internalType": "uint256",
          "name": "",
          "type": "uint256"
        },
        {
          "internalType": "address",
          "name": "_compliance",
          "type": "address"
        }
      ],
      "name": "moduleCheck",
      "outputs": [
        {
          "internalType": "bool",
          "name": "",
          "type": "bool"
        }
      ],
      "stateMutability": "view",
      "type": "function"
    },
    {
      "inputs": [
        {
          "internalType": "address",
          "name": "_to",
          "type": "address"
        },
        {
          "internalType": "uint256",
          "name": "_value",
          "type": "uint256"
        }
      ],
      "name": "moduleMintAction",
      "outputs": [],
      "stateMutability": "nonpayable",
      "type": "function"
    },
    {
      "inputs": [
        {
          "internalType": "address",
          "name": "_from",
          "type": "address"
        },
        {
          "internalType": "address",
          "name": "_to",
          "type": "address"
        },
        {
          "internalType": "uint256",
          "name": "_value",
          "type": "uint256"
        }
      ],
      "name": "moduleTransferAction",
      "outputs": [],
      "stateMutability": "nonpayable",
      "type": "function"
    },
    {
      "inputs": [],
      "name": "name",
      "outputs": [
        {
          "internalType": "string",
          "name": "_name",
          "type": "string"
        }
      ],
      "stateMutability": "pure",
      "type": "function"
    },
    {
      "inputs": [],
      "name": "owner",
      "outputs": [
        {
          "internalType": "address",
          "name": "",
          "type": "address"
        }
      ],
      "stateMutability": "view",
      "type": "function"
    },
    {
      "inputs": [],
      "name": "proxiableUUID",
      "outputs": [
        {
          "internalType": "bytes32",
          "name": "",
          "type": "bytes32"
        }
      ],
      "stateMutability": "view",
      "type": "function"
    },
    {
      "inputs": [
        {
          "internalType": "uint16",
          "name": "_country",
          "type": "uint16"
        }
      ],
      "name": "removeAllowedCountry",
      "outputs": [],
      "stateMutability": "nonpayable",
      "type": "function"
    },
    {
      "inputs": [],
      "name": "renounceOwnership",
      "outputs": [],
      "stateMutability": "nonpayable",
      "type": "function"
    },
    {
      "inputs": [
        {
          "internalType": "address",
          "name": "newOwner",
          "type": "address"
        }
      ],
      "name": "transferOwnership",
      "outputs": [],
      "stateMutability": "nonpayable",
      "type": "function"
    },
    {
      "inputs": [
        {
          "internalType": "address",
          "name": "_compliance",
          "type": "address"
        }
      ],
      "name": "unbindCompliance",
      "outputs": [],
      "stateMutability": "nonpayable",
      "type": "function"
    },
    {
      "inputs": [
        {
          "internalType": "address",
          "name": "newImplementation",
          "type": "address"
        }
      ],
      "name": "upgradeTo",
      "outputs": [],
      "stateMutability": "nonpayable",
      "type": "function"
    },
    {
      "inputs": [
        {
          "internalType": "address",
          "name": "newImplementation",
          "type": "address"
        },
        {
          "internalType": "bytes",
          "name": "data",
          "type": "bytes"
        }
      ],
      "name": "upgradeToAndCall",
      "outputs": [],
      "stateMutability": "payable",
      "type": "function"
    }
  ],
  "bytecode": "0x60a06040523060805234801561001457600080fd5b50608051611b7161004c600039600081816105f5015281816106350152818161085b0152818161089b0152610a1a0152611b716000f3fe6080604052600436106101355760003560e01c806352d1902d116100ab5780638da5cb5b1161006f5780638da5cb5b146103a4578063bcc21053146103cc578063c08e1502146103ed578063e6f5e8071461040d578063f104a8c91461025e578063f2fde38b1461042157600080fd5b806352d1902d14610317578063715018a61461033a578063771c52811461034f5780638129fc1c1461036f578063817544c31461038457600080fd5b80633659cfe6116100fd5780633659cfe61461023e578063372491a21461025e5780634a9325441461027e5780634cf4d2951461029e5780634f1ef286146102e45780634f44425e146102f757600080fd5b8063013b7ce41461013a5780630694a5fb1461016f57806306fdde03146101915780630f4f0904146101d25780632cb7e1ec1461021e575b600080fd5b34801561014657600080fd5b5061015a6101553660046115c7565b610441565b60405190151581526020015b60405180910390f35b34801561017b57600080fd5b5061018f61018a36600461161a565b610486565b005b34801561019d57600080fd5b506040805180820182526012815271436f756e747279416c6c6f774d6f64756c6560701b60208201529051610166919061165b565b3480156101de57600080fd5b5061015a6101ed36600461169e565b6001600160a01b038216600090815260c96020908152604080832061ffff8516845290915290205460ff1692915050565b34801561022a57600080fd5b5061018f6102393660046116d7565b6105a6565b34801561024a57600080fd5b5061018f61025936600461161a565b6105eb565b34801561026a57600080fd5b5061018f610279366004611718565b6106ca565b34801561028a57600080fd5b5061018f61029936600461161a565b61070e565b3480156102aa57600080fd5b5061015a6102b936600461161a565b6001600160a01b03166000908152600080516020611b1c833981519152602052604090205460ff1690565b61018f6102f236600461175a565b610851565b34801561030357600080fd5b5061018f61031236600461181e565b610921565b34801561032357600080fd5b5061032c610a0d565b604051908152602001610166565b34801561034657600080fd5b5061018f610ac0565b34801561035b57600080fd5b5061018f61036a36600461183b565b610ad4565b34801561037b57600080fd5b5061018f610beb565b34801561039057600080fd5b5061018f61039f36600461181e565b610cfb565b3480156103b057600080fd5b506033546040516001600160a01b039091168152602001610166565b3480156103d857600080fd5b5061015a6103e736600461161a565b50600190565b3480156103f957600080fd5b5061018f61040836600461183b565b610dd7565b34801561041957600080fd5b50600161015a565b34801561042d57600080fd5b5061018f61043c36600461161a565b610eec565b60008061044e8386610f62565b6001600160a01b038416600090815260c96020908152604080832061ffff949094168352929052205460ff169150505b949350505050565b336000908152600080516020611b1c833981519152602081905260409091205460ff166104ce5760405162461bcd60e51b81526004016104c5906118b0565b60405180910390fd5b600080516020611b1c8339815191526001600160a01b0383166105335760405162461bcd60e51b815260206004820152601f60248201527f696e76616c696420617267756d656e74202d207a65726f20616464726573730060448201526064016104c5565b336001600160a01b0384161461055b5760405162461bcd60e51b81526004016104c5906118e7565b6001600160a01b038316600081815260208390526040808220805460ff19169055517f408b49d9be1c914c52a0227e18a077e5a892dddf32a26cfa94a5d9708fad77189190a2505050565b336000908152600080516020611b1c833981519152602081905260409091205460ff166105e55760405162461bcd60e51b81526004016104c5906118b0565b50505050565b6001600160a01b037f00000000000000000000000000000000000000000000000000000000000000001630036106335760405162461bcd60e51b81526004016104c590611928565b7f00000000000000000000000000000000000000000000000000000000000000006001600160a01b031661067c600080516020611ad5833981519152546001600160a01b031690565b6001600160a01b0316146106a25760405162461bcd60e51b81526004016104c590611974565b6106ab8161109a565b604080516000808252602082019092526106c7918391906110a2565b50565b336000908152600080516020611b1c833981519152602081905260409091205460ff166107095760405162461bcd60e51b81526004016104c5906118b0565b505050565b600080516020611b1c8339815191526001600160a01b0382166107735760405162461bcd60e51b815260206004820152601f60248201527f696e76616c696420617267756d656e74202d207a65726f20616464726573730060448201526064016104c5565b6001600160a01b03821660009081526020829052604090205460ff16156107dc5760405162461bcd60e51b815260206004820152601860248201527f636f6d706c69616e636520616c726561647920626f756e64000000000000000060448201526064016104c5565b336001600160a01b038316146108045760405162461bcd60e51b81526004016104c5906118e7565b6001600160a01b038216600081815260208390526040808220805460ff19166001179055517f1f7b76c58fb697eb53c6c7c1becb96911516a136e24d7ced386b2355358b75a39190a25050565b6001600160a01b037f00000000000000000000000000000000000000000000000000000000000000001630036108995760405162461bcd60e51b81526004016104c590611928565b7f00000000000000000000000000000000000000000000000000000000000000006001600160a01b03166108e2600080516020611ad5833981519152546001600160a01b031690565b6001600160a01b0316146109085760405162461bcd60e51b81526004016104c590611974565b6109118261109a565b61091d828260016110a2565b5050565b336000908152600080516020611b1c833981519152602081905260409091205460ff166109605760405162461bcd60e51b81526004016104c5906118b0565b33600090815260c96020908152604080832061ffff8616845290915290205460ff1615156001036109a857338260405163af6d613560e01b81526004016104c59291906119c0565b33600081815260c96020908152604080832061ffff8716845290915290819020805460ff19166001179055517f48c279381632bf87fca2680865a7384b6eb20716fd96b882b305a2198930a07491610a019185906119c0565b60405180910390a15050565b6000306001600160a01b037f00000000000000000000000000000000000000000000000000000000000000001614610aad5760405162461bcd60e51b815260206004820152603860248201527f555550535570677261646561626c653a206d757374206e6f742062652063616c60448201527f6c6564207468726f7567682064656c656761746563616c6c000000000000000060648201526084016104c5565b50600080516020611ad583398151915290565b610ac861120d565b610ad26000611267565b565b336000908152600080516020611b1c833981519152602081905260409091205460ff16610b135760405162461bcd60e51b81526004016104c5906118b0565b60005b828110156105e55733600090815260c960205260408120600191868685818110610b4257610b426119dd565b9050602002016020810190610b57919061181e565b61ffff1681526020810191909152604001600020805460ff19169115159190911790557f48c279381632bf87fca2680865a7384b6eb20716fd96b882b305a2198930a07433858584818110610bae57610bae6119dd565b9050602002016020810190610bc3919061181e565b604051610bd19291906119c0565b60405180910390a180610be3816119f3565b915050610b16565b600054610100900460ff1615808015610c0b5750600054600160ff909116105b80610c255750303b158015610c25575060005460ff166001145b610c885760405162461bcd60e51b815260206004820152602e60248201527f496e697469616c697a61626c653a20636f6e747261637420697320616c72656160448201526d191e481a5b9a5d1a585b1a5e995960921b60648201526084016104c5565b6000805460ff191660011790558015610cab576000805461ff0019166101001790555b610cb36112b9565b80156106c7576000805461ff0019169055604051600181527f7f26b83ff96e1f2b6a682f133852f6798a09c465da95921460cefb38474024989060200160405180910390a150565b336000908152600080516020611b1c833981519152602081905260409091205460ff16610d3a5760405162461bcd60e51b81526004016104c5906118b0565b33600090815260c96020908152604080832061ffff8616845290915281205460ff1615159003610d8157338260405163236a687560e11b81526004016104c59291906119c0565b33600081815260c96020908152604080832061ffff8716845290915290819020805460ff19169055517f35c7374bcb82f2355cb703c8ab6162f87fe83b99618bdb78c6d19b07ddf060a291610a019185906119c0565b336000908152600080516020611b1c833981519152602081905260409091205460ff16610e165760405162461bcd60e51b81526004016104c5906118b0565b60005b828110156105e55733600090815260c96020526040812081868685818110610e4357610e436119dd565b9050602002016020810190610e58919061181e565b61ffff1681526020810191909152604001600020805460ff19169115159190911790557f35c7374bcb82f2355cb703c8ab6162f87fe83b99618bdb78c6d19b07ddf060a233858584818110610eaf57610eaf6119dd565b9050602002016020810190610ec4919061181e565b604051610ed29291906119c0565b60405180910390a180610ee4816119f3565b915050610e19565b610ef461120d565b6001600160a01b038116610f595760405162461bcd60e51b815260206004820152602660248201527f4f776e61626c653a206e6577206f776e657220697320746865207a65726f206160448201526564647265737360d01b60648201526084016104c5565b6106c781611267565b6000826001600160a01b0316636a3edf286040518163ffffffff1660e01b8152600401602060405180830381865afa158015610fa2573d6000803e3d6000fd5b505050506040513d601f19601f82011682018060405250810190610fc69190611a1a565b6001600160a01b031663134e18f46040518163ffffffff1660e01b8152600401602060405180830381865afa158015611003573d6000803e3d6000fd5b505050506040513d601f19601f820116820180604052508101906110279190611a1a565b604051637e42683b60e01b81526001600160a01b0384811660048301529190911690637e42683b90602401602060405180830381865afa15801561106f573d6000803e3d6000fd5b505050506040513d601f19601f820116820180604052508101906110939190611a37565b9392505050565b6106c761120d565b7f4910fdfa16fed3260ed0e7147f7cc6da11a60208b5b9406d12a635614ffd91435460ff16156110d557610709836112f0565b826001600160a01b03166352d1902d6040518163ffffffff1660e01b8152600401602060405180830381865afa92505050801561112f575060408051601f3d908101601f1916820190925261112c91810190611a54565b60015b6111925760405162461bcd60e51b815260206004820152602e60248201527f45524331393637557067726164653a206e657720696d706c656d656e7461746960448201526d6f6e206973206e6f74205555505360901b60648201526084016104c5565b600080516020611ad583398151915281146112015760405162461bcd60e51b815260206004820152602960248201527f45524331393637557067726164653a20756e737570706f727465642070726f786044820152681a58589b195555525160ba1b60648201526084016104c5565b5061070983838361138c565b6033546001600160a01b03163314610ad25760405162461bcd60e51b815260206004820181905260248201527f4f776e61626c653a2063616c6c6572206973206e6f7420746865206f776e657260448201526064016104c5565b603380546001600160a01b038381166001600160a01b0319831681179093556040519116919082907f8be0079c531659141344cd1fd0a4f28419497f9722a3daafe3b4186f6b6457e090600090a35050565b600054610100900460ff166112e05760405162461bcd60e51b81526004016104c590611a6d565b6112e86113b1565b610ad26113e0565b6001600160a01b0381163b61135d5760405162461bcd60e51b815260206004820152602d60248201527f455243313936373a206e657720696d706c656d656e746174696f6e206973206e60448201526c1bdd08184818dbdb9d1c9858dd609a1b60648201526084016104c5565b600080516020611ad583398151915280546001600160a01b0319166001600160a01b0392909216919091179055565b61139583611407565b6000825111806113a25750805b15610709576105e58383611447565b600054610100900460ff166113d85760405162461bcd60e51b81526004016104c590611a6d565b610ad261146c565b600054610100900460ff16610ad25760405162461bcd60e51b81526004016104c590611a6d565b611410816112f0565b6040516001600160a01b038216907fbc7cd75a20ee27fd9adebab32041f755214dbc6bffa90cc0225b39da2e5c2d3b90600090a250565b60606110938383604051806060016040528060278152602001611af56027913961149c565b600054610100900460ff166114935760405162461bcd60e51b81526004016104c590611a6d565b610ad233611267565b6060600080856001600160a01b0316856040516114b99190611ab8565b600060405180830381855af49150503d80600081146114f4576040519150601f19603f3d011682016040523d82523d6000602084013e6114f9565b606091505b509150915061150a86838387611514565b9695505050505050565b6060831561158357825160000361157c576001600160a01b0385163b61157c5760405162461bcd60e51b815260206004820152601d60248201527f416464726573733a2063616c6c20746f206e6f6e2d636f6e747261637400000060448201526064016104c5565b508161047e565b61047e83838151156115985781518083602001fd5b8060405162461bcd60e51b81526004016104c5919061165b565b6001600160a01b03811681146106c757600080fd5b600080600080608085870312156115dd57600080fd5b84356115e8816115b2565b935060208501356115f8816115b2565b925060408501359150606085013561160f816115b2565b939692955090935050565b60006020828403121561162c57600080fd5b8135611093816115b2565b60005b8381101561165257818101518382015260200161163a565b50506000910152565b602081526000825180602084015261167a816040850160208701611637565b601f01601f19169190910160400192915050565b61ffff811681146106c757600080fd5b600080604083850312156116b157600080fd5b82356116bc816115b2565b915060208301356116cc8161168e565b809150509250929050565b6000806000606084860312156116ec57600080fd5b83356116f7816115b2565b92506020840135611707816115b2565b929592945050506040919091013590565b6000806040838503121561172b57600080fd5b8235611736816115b2565b946020939093013593505050565b634e487b7160e01b600052604160045260246000fd5b6000806040838503121561176d57600080fd5b8235611778816115b2565b9150602083013567ffffffffffffffff8082111561179557600080fd5b818501915085601f8301126117a957600080fd5b8135818111156117bb576117bb611744565b604051601f8201601f19908116603f011681019083821181831017156117e3576117e3611744565b816040528281528860208487010111156117fc57600080fd5b8260208601602083013760006020848301015280955050505050509250929050565b60006020828403121561183057600080fd5b81356110938161168e565b6000806020838503121561184e57600080fd5b823567ffffffffffffffff8082111561186657600080fd5b818501915085601f83011261187a57600080fd5b81358181111561188957600080fd5b8660208260051b850101111561189e57600080fd5b60209290920196919550909350505050565b6020808252601e908201527f6f6e6c7920626f756e6420636f6d706c69616e63652063616e2063616c6c0000604082015260600190565b60208082526021908201527f6f6e6c7920636f6d706c69616e636520636f6e74726163742063616e2063616c6040820152601b60fa1b606082015260800190565b6020808252602c908201527f46756e6374696f6e206d7573742062652063616c6c6564207468726f7567682060408201526b19195b1959d85d1958d85b1b60a21b606082015260800190565b6020808252602c908201527f46756e6374696f6e206d7573742062652063616c6c6564207468726f7567682060408201526b6163746976652070726f787960a01b606082015260800190565b6001600160a01b0392909216825261ffff16602082015260400190565b634e487b7160e01b600052603260045260246000fd5b600060018201611a1357634e487b7160e01b600052601160045260246000fd5b5060010190565b600060208284031215611a2c57600080fd5b8151611093816115b2565b600060208284031215611a4957600080fd5b81516110938161168e565b600060208284031215611a6657600080fd5b5051919050565b6020808252602b908201527f496e697469616c697a61626c653a20636f6e7472616374206973206e6f74206960408201526a6e697469616c697a696e6760a81b606082015260800190565b60008251611aca818460208701611637565b919091019291505056fe360894a13ba1a3210667c828492db98dca3e2076cc3735a920a3ca505d382bbc416464726573733a206c6f772d6c6576656c2064656c65676174652063616c6c206661696c6564f6cc97de1266c180cd39f3b311632644143ce7873d2927755382ad4b39e8ae00a264697066735822122070431302369b242d7ffe97d86959da80770cf9cbaa807cd6e0b2843c9590ee2464736f6c63430008110033",
  "linkReferences": {},
  "deployedLinkReferences": {}
}