{
  "_format": "hh-sol-artifact-1",
  "contractName": "TimeExchangeLimitsModule",
  "sourceName": "contracts/compliance/modular/modules/TimeExchangeLimitsModule.sol",
  "abi": [
    {
      "inputs": [
        {
          "internalType": "address",
          "name": "compliance",
          "type": "address"
        },
        {
          "internalType": "uint256",
          "name": "arraySize",
          "type": "uint256"
        }
      ],
      "name": "LimitsArraySizeExceeded",
      "type": "error"
    },
    {
      "inputs": [
        {
          "internalType": "address",
          "name": "_exchangeID",
          "type": "address"
        }
      ],
      "name": "ONCHAINIDAlreadyTaggedAsExchange",
      "type": "error"
    },
    {
      "inputs": [
        {
          "internalType": "address",
          "name": "_exchangeID",
          "type": "address"
        }
      ],
      "name": "ONCHAINIDNotTaggedAsExchange",
      "type": "error"
    },
    {
      "anonymous": false,
      "inputs": [
        {
          "indexed": false,
          "internalType": "address",
          "name": "previousAdmin",
          "type": "address"
        },
        {
          "indexed": false,
          "internalType": "address",
          "name": "newAdmin",
          "type": "address"
        }
      ],
      "name": "AdminChanged",
      "type": "event"
    },
    {
      "anonymous": false,
      "inputs": [
        {
          "indexed": true,
          "internalType": "address",
          "name": "beacon",
          "type": "address"
        }
      ],
      "name": "BeaconUpgraded",
      "type": "event"
    },
    {
      "anonymous": false,
      "inputs": [
        {
          "indexed": true,
          "internalType": "address",
          "name": "_compliance",
          "type": "address"
        }
      ],
      "name": "ComplianceBound",
      "type": "event"
    },
    {
      "anonymous": false,
      "inputs": [
        {
          "indexed": true,
          "internalType": "address",
          "name": "_compliance",
          "type": "address"
        }
      ],
      "name": "ComplianceUnbound",
      "type": "event"
    },
    {
      "anonymous": false,
      "inputs": [
        {
          "indexed": false,
          "internalType": "address",
          "name": "_newExchangeID",
          "type": "address"
        }
      ],
      "name": "ExchangeIDAdded",
      "type": "event"
    },
    {
      "anonymous": false,
      "inputs": [
        {
          "indexed": false,
          "internalType": "address",
          "name": "_exchangeID",
          "type": "address"
        }
      ],
      "name": "ExchangeIDRemoved",
      "type": "event"
    },
    {
      "anonymous": false,
      "inputs": [
        {
          "indexed": true,
          "internalType": "address",
          "name": "compliance",
          "type": "address"
        },
        {
          "indexed": false,
          "internalType": "address",
          "name": "_exchangeID",
          "type": "address"
        },
        {
          "indexed": false,
          "internalType": "uint256",
          "name": "_limitValue",
          "type": "uint256"
        },
        {
          "indexed": false,
          "internalType": "uint32",
          "name": "_limitTime",
          "type": "uint32"
        }
      ],
      "name": "ExchangeLimitUpdated",
      "type": "event"
    },
    {
      "anonymous": false,
      "inputs": [
        {
          "indexed": false,
          "internalType": "uint8",
          "name": "version",
          "type": "uint8"
        }
      ],
      "name": "Initialized",
      "type": "event"
    },
    {
      "anonymous": false,
      "inputs": [
        {
          "indexed": true,
          "internalType": "address",
          "name": "previousOwner",
          "type": "address"
        },
        {
          "indexed": true,
          "internalType": "address",
          "name": "newOwner",
          "type": "address"
        }
      ],
      "name": "OwnershipTransferred",
      "type": "event"
    },
    {
      "anonymous": false,
      "inputs": [
        {
          "indexed": true,
          "internalType": "address",
          "name": "implementation",
          "type": "address"
        }
      ],
      "name": "Upgraded",
      "type": "event"
    },
    {
      "inputs": [
        {
          "internalType": "address",
          "name": "_exchangeID",
          "type": "address"
        }
      ],
      "name": "addExchangeID",
      "outputs": [],
      "stateMutability": "nonpayable",
      "type": "function"
    },
    {
      "inputs": [
        {
          "internalType": "address",
          "name": "_compliance",
          "type": "address"
        }
      ],
      "name": "bindCompliance",
      "outputs": [],
      "stateMutability": "nonpayable",
      "type": "function"
    },
    {
      "inputs": [
        {
          "internalType": "address",
          "name": "",
          "type": "address"
        }
      ],
      "name": "canComplianceBind",
      "outputs": [
        {
          "internalType": "bool",
          "name": "",
          "type": "bool"
        }
      ],
      "stateMutability": "view",
      "type": "function"
    },
    {
      "inputs": [
        {
          "internalType": "address",
          "name": "compliance",
          "type": "address"
        },
        {
          "internalType": "address",
          "name": "_exchangeID",
          "type": "address"
        },
        {
          "internalType": "address",
          "name": "_investorID",
          "type": "address"
        },
        {
          "internalType": "uint32",
          "name": "_limitTime",
          "type": "uint32"
        }
      ],
      "name": "getExchangeCounter",
      "outputs": [
        {
          "components": [
            {
              "internalType": "uint256",
              "name": "value",
              "type": "uint256"
            },
            {
              "internalType": "uint256",
              "name": "timer",
              "type": "uint256"
            }
          ],
          "internalType": "struct TimeExchangeLimitsModule.ExchangeTransferCounter",
          "name": "",
          "type": "tuple"
        }
      ],
      "stateMutability": "view",
      "type": "function"
    },
    {
      "inputs": [
        {
          "internalType": "address",
          "name": "compliance",
          "type": "address"
        },
        {
          "internalType": "address",
          "name": "_exchangeID",
          "type": "address"
        }
      ],
      "name": "getExchangeLimits",
      "outputs": [
        {
          "components": [
            {
              "internalType": "uint32",
              "name": "limitTime",
              "type": "uint32"
            },
            {
              "internalType": "uint256",
              "name": "limitValue",
              "type": "uint256"
            }
          ],
          "internalType": "struct TimeExchangeLimitsModule.Limit[]",
          "name": "",
          "type": "tuple[]"
        }
      ],
      "stateMutability": "view",
      "type": "function"
    },
    {
      "inputs": [],
      "name": "initialize",
      "outputs": [],
      "stateMutability": "nonpayable",
      "type": "function"
    },
    {
      "inputs": [
        {
          "internalType": "address",
          "name": "_compliance",
          "type": "address"
        }
      ],
      "name": "isComplianceBound",
      "outputs": [
        {
          "internalType": "bool",
          "name": "",
          "type": "bool"
        }
      ],
      "stateMutability": "view",
      "type": "function"
    },
    {
      "inputs": [
        {
          "internalType": "address",
          "name": "_exchangeID",
          "type": "address"
        }
      ],
      "name": "isExchangeID",
      "outputs": [
        {
          "internalType": "bool",
          "name": "",
          "type": "bool"
        }
      ],
      "stateMutability": "view",
      "type": "function"
    },
    {
      "inputs": [],
      "name": "isPlugAndPlay",
      "outputs": [
        {
          "internalType": "bool",
          "name": "",
          "type": "bool"
        }
      ],
      "stateMutability": "pure",
      "type": "function"
    },
    {
      "inputs": [
        {
          "internalType": "address",
          "name": "",
          "type": "address"
        },
        {
          "internalType": "uint256",
          "name": "",
          "type": "uint256"
        }
      ],
      "name": "moduleBurnAction",
      "outputs": [],
      "stateMutability": "nonpayable",
      "type": "function"
    },
    {
      "inputs": [
        {
          "internalType": "address",
          "name": "_from",
          "type": "address"
        },
        {
          "internalType": "address",
          "name": "_to",
          "type": "address"
        },
        {
          "internalType": "uint256",
          "name": "_value",
          "type": "uint256"
        },
        {
          "internalType": "address",
          "name": "_compliance",
          "type": "address"
        }
      ],
      "name": "moduleCheck",
      "outputs": [
        {
          "internalType": "bool",
          "name": "",
          "type": "bool"
        }
      ],
      "stateMutability": "view",
      "type": "function"
    },
    {
      "inputs": [
        {
          "internalType": "address",
          "name": "",
          "type": "address"
        },
        {
          "internalType": "uint256",
          "name": "",
          "type": "uint256"
        }
      ],
      "name": "moduleMintAction",
      "outputs": [],
      "stateMutability": "nonpayable",
      "type": "function"
    },
    {
      "inputs": [
        {
          "internalType": "address",
          "name": "_from",
          "type": "address"
        },
        {
          "internalType": "address",
          "name": "_to",
          "type": "address"
        },
        {
          "internalType": "uint256",
          "name": "_value",
          "type": "uint256"
        }
      ],
      "name": "moduleTransferAction",
      "outputs": [],
      "stateMutability": "nonpayable",
      "type": "function"
    },
    {
      "inputs": [],
      "name": "name",
      "outputs": [
        {
          "internalType": "string",
          "name": "_name",
          "type": "string"
        }
      ],
      "stateMutability": "pure",
      "type": "function"
    },
    {
      "inputs": [],
      "name": "owner",
      "outputs": [
        {
          "internalType": "address",
          "name": "",
          "type": "address"
        }
      ],
      "stateMutability": "view",
      "type": "function"
    },
    {
      "inputs": [],
      "name": "proxiableUUID",
      "outputs": [
        {
          "internalType": "bytes32",
          "name": "",
          "type": "bytes32"
        }
      ],
      "stateMutability": "view",
      "type": "function"
    },
    {
      "inputs": [
        {
          "internalType": "address",
          "name": "_exchangeID",
          "type": "address"
        }
      ],
      "name": "removeExchangeID",
      "outputs": [],
      "stateMutability": "nonpayable",
      "type": "function"
    },
    {
      "inputs": [],
      "name": "renounceOwnership",
      "outputs": [],
      "stateMutability": "nonpayable",
      "type": "function"
    },
    {
      "inputs": [
        {
          "internalType": "address",
          "name": "_exchangeID",
          "type": "address"
        },
        {
          "components": [
            {
              "internalType": "uint32",
              "name": "limitTime",
              "type": "uint32"
            },
            {
              "internalType": "uint256",
              "name": "limitValue",
              "type": "uint256"
            }
          ],
          "internalType": "struct TimeExchangeLimitsModule.Limit",
          "name": "_limit",
          "type": "tuple"
        }
      ],
      "name": "setExchangeLimit",
      "outputs": [],
      "stateMutability": "nonpayable",
      "type": "function"
    },
    {
      "inputs": [
        {
          "internalType": "address",
          "name": "newOwner",
          "type": "address"
        }
      ],
      "name": "transferOwnership",
      "outputs": [],
      "stateMutability": "nonpayable",
      "type": "function"
    },
    {
      "inputs": [
        {
          "internalType": "address",
          "name": "_compliance",
          "type": "address"
        }
      ],
      "name": "unbindCompliance",
      "outputs": [],
      "stateMutability": "nonpayable",
      "type": "function"
    },
    {
      "inputs": [
        {
          "internalType": "address",
          "name": "newImplementation",
          "type": "address"
        }
      ],
      "name": "upgradeTo",
      "outputs": [],
      "stateMutability": "nonpayable",
      "type": "function"
    },
    {
      "inputs": [
        {
          "internalType": "address",
          "name": "newImplementation",
          "type": "address"
        },
        {
          "internalType": "bytes",
          "name": "data",
          "type": "bytes"
        }
      ],
      "name": "upgradeToAndCall",
      "outputs": [],
      "stateMutability": "payable",
      "type": "function"
    }
  ],
  "bytecode": "0x60a06040523060805234801561001457600080fd5b506080516121e461004c6000396000818161095b0152818161099b01528181610bc101528181610c010152610c9401526121e46000f3fe6080604052600436106101405760003560e01c8063715018a6116100b6578063bcc210531161006f578063bcc2105314610445578063c9d9769a14610466578063d22579fb14610486578063e6f5e807146104a6578063f104a8c914610248578063f2fde38b146104ba57600080fd5b8063715018a61461030457806374436d97146103195780638129fc1c146103395780638da5cb5b1461034e578063ac0dde7014610376578063b19761a8146103a357600080fd5b80633659cfe6116101085780633659cfe614610228578063372491a2146102485780634a932544146102685780634cf4d295146102885780634f1ef286146102ce57806352d1902d146102e157600080fd5b8063013b7ce4146101455780630694a5fb1461017a57806306fdde031461019c5780632bb5e721146101e85780632cb7e1ec14610208575b600080fd5b34801561015157600080fd5b50610165610160366004611b81565b6104da565b60405190151581526020015b60405180910390f35b34801561018657600080fd5b5061019a610195366004611bd4565b61070c565b005b3480156101a857600080fd5b50604080518082018252601881527f54696d6545786368616e67654c696d6974734d6f64756c650000000000000000602082015290516101719190611c15565b3480156101f457600080fd5b5061019a610203366004611bd4565b61082c565b34801561021457600080fd5b5061019a610223366004611c48565b6108c1565b34801561023457600080fd5b5061019a610243366004611bd4565b610951565b34801561025457600080fd5b5061019a610263366004611c89565b610a30565b34801561027457600080fd5b5061019a610283366004611bd4565b610a74565b34801561029457600080fd5b506101656102a3366004611bd4565b6001600160a01b0316600090815260008051602061218f833981519152602052604090205460ff1690565b61019a6102dc366004611cfc565b610bb7565b3480156102ed57600080fd5b506102f6610c87565b604051908152602001610171565b34801561031057600080fd5b5061019a610d3a565b34801561032557600080fd5b5061019a610334366004611bd4565b610d4e565b34801561034557600080fd5b5061019a610dd8565b34801561035a57600080fd5b506033546040516001600160a01b039091168152602001610171565b34801561038257600080fd5b50610396610391366004611da4565b610ee2565b6040516101719190611ddd565b3480156103af57600080fd5b5061042a6103be366004611e4b565b604080518082018252600080825260209182018190526001600160a01b03968716815260cb8252828120958716815294815281852093909516845291845281832063ffffffff919091168352835290819020815180830190925280548252600101549181019190915290565b60408051825181526020928301519281019290925201610171565b34801561045157600080fd5b50610165610460366004611bd4565b50600190565b34801561047257600080fd5b5061019a610481366004611ea5565b610f78565b34801561049257600080fd5b506101656104a1366004611bd4565b611202565b3480156104b257600080fd5b506001610165565b3480156104c657600080fd5b5061019a6104d5366004611bd4565b611220565b60006001600160a01b03851615806104f757506104f78286611296565b1561050457506001610704565b6000610510838761136d565b905061051b81611202565b1561052a576001915050610704565b6000610536848761136d565b905061054181611202565b61055057600192505050610704565b60005b6001600160a01b03808616600090815260ca60209081526040808320938616835292905220548110156106fc576001600160a01b03808616600090815260ca602090815260408083209386168352929052208054829081106105b7576105b7611f20565b9060005260206000209060020201600101548611156105dc5760009350505050610704565b6001600160a01b03808616600090815260ca60209081526040808320938616835292905290812080548390811061061557610615611f20565b600091825260209091206002909102015463ffffffff16905061063a8684868461149e565b1580156106d757506001600160a01b03808716600090815260ca6020908152604080832093871683529290522080548390811061067957610679611f20565b60009182526020808320600160029093020191909101546001600160a01b03808a16845260cb8352604080852088831686528452808520918916855290835280842063ffffffff861685529092529120546106d5908990611f4c565b115b156106e9576000945050505050610704565b50806106f481611f5f565b915050610553565b506001925050505b949350505050565b33600090815260008051602061218f833981519152602081905260409091205460ff166107545760405162461bcd60e51b815260040161074b90611f78565b60405180910390fd5b60008051602061218f8339815191526001600160a01b0383166107b95760405162461bcd60e51b815260206004820152601f60248201527f696e76616c696420617267756d656e74202d207a65726f206164647265737300604482015260640161074b565b336001600160a01b038416146107e15760405162461bcd60e51b815260040161074b90611faf565b6001600160a01b038316600081815260208390526040808220805460ff19169055517f408b49d9be1c914c52a0227e18a077e5a892dddf32a26cfa94a5d9708fad77189190a2505050565b6108346114ea565b61083d81611202565b15610866576040516345d1498b60e01b81526001600160a01b038216600482015260240161074b565b6001600160a01b038116600081815260cc6020908152604091829020805460ff1916600117905590519182527fca661533a567195376b79f20fcbcca20e62ceea1d43efacba5f8028329da8e6b91015b60405180910390a150565b33600090815260008051602061218f833981519152602081905260409091205460ff166109005760405162461bcd60e51b815260040161074b90611f78565b600061090c338661136d565b9050600061091a338661136d565b905061092581611202565b801561093857506109363387611296565b155b156109495761094933828487611544565b505050505050565b6001600160a01b037f00000000000000000000000000000000000000000000000000000000000000001630036109995760405162461bcd60e51b815260040161074b90611ff0565b7f00000000000000000000000000000000000000000000000000000000000000006001600160a01b03166109e2600080516020612148833981519152546001600160a01b031690565b6001600160a01b031614610a085760405162461bcd60e51b815260040161074b9061203c565b610a1181611642565b60408051600080825260208201909252610a2d9183919061164a565b50565b33600090815260008051602061218f833981519152602081905260409091205460ff16610a6f5760405162461bcd60e51b815260040161074b90611f78565b505050565b60008051602061218f8339815191526001600160a01b038216610ad95760405162461bcd60e51b815260206004820152601f60248201527f696e76616c696420617267756d656e74202d207a65726f206164647265737300604482015260640161074b565b6001600160a01b03821660009081526020829052604090205460ff1615610b425760405162461bcd60e51b815260206004820152601860248201527f636f6d706c69616e636520616c726561647920626f756e640000000000000000604482015260640161074b565b336001600160a01b03831614610b6a5760405162461bcd60e51b815260040161074b90611faf565b6001600160a01b038216600081815260208390526040808220805460ff19166001179055517f1f7b76c58fb697eb53c6c7c1becb96911516a136e24d7ced386b2355358b75a39190a25050565b6001600160a01b037f0000000000000000000000000000000000000000000000000000000000000000163003610bff5760405162461bcd60e51b815260040161074b90611ff0565b7f00000000000000000000000000000000000000000000000000000000000000006001600160a01b0316610c48600080516020612148833981519152546001600160a01b031690565b6001600160a01b031614610c6e5760405162461bcd60e51b815260040161074b9061203c565b610c7782611642565b610c838282600161164a565b5050565b6000306001600160a01b037f00000000000000000000000000000000000000000000000000000000000000001614610d275760405162461bcd60e51b815260206004820152603860248201527f555550535570677261646561626c653a206d757374206e6f742062652063616c60448201527f6c6564207468726f7567682064656c656761746563616c6c0000000000000000606482015260840161074b565b5060008051602061214883398151915290565b610d426114ea565b610d4c60006117b5565b565b610d566114ea565b610d5f81611202565b610d8757604051630120783160e61b81526001600160a01b038216600482015260240161074b565b6001600160a01b038116600081815260cc6020908152604091829020805460ff1916905590519182527fc59743ca46d36b7cf42c36211a2fbef12e10aec1bfc9d39eccf91b6976a260f591016108b6565b600054610100900460ff1615808015610df85750600054600160ff909116105b80610e125750303b158015610e12575060005460ff166001145b610e755760405162461bcd60e51b815260206004820152602e60248201527f496e697469616c697a61626c653a20636f6e747261637420697320616c72656160448201526d191e481a5b9a5d1a585b1a5e995960921b606482015260840161074b565b6000805460ff191660011790558015610e98576000805461ff0019166101001790555b610ea0611807565b8015610a2d576000805461ff0019169055604051600181527f7f26b83ff96e1f2b6a682f133852f6798a09c465da95921460cefb3847402498906020016108b6565b6001600160a01b03808316600090815260ca602090815260408083209385168352928152828220805484518184028101840190955280855260609493919290919084015b82821015610f6b5760008481526020908190206040805180820190915260028502909101805463ffffffff168252600190810154828401529083529092019101610f26565b5050505090505b92915050565b33600090815260008051602061218f833981519152602081905260409091205460ff16610fb75760405162461bcd60e51b815260040161074b90611f78565b33600081815260c9602090815260408083206001600160a01b038816808552908352818420875163ffffffff16855283528184205494845260ca835281842090845290915290205460ff9091169081158015611017575060048160ff1610155b15611040576040516382f520a960e01b815233600482015260ff8216602482015260440161074b565b81158015611051575060048160ff16105b1561110b5733600081815260ca602090815260408083206001600160a01b038a168085529083528184208054600180820183559186528486208b51600290920201805463ffffffff191663ffffffff9283161781558b860151908301558351808501855291825260ff88811683870190815297875260c986528487209387529285528386208b519091168652909352922090518154935161ffff1990941690151561ff0019161761010093909216929092021790556111a3565b33600081815260ca602090815260408083206001600160a01b038a1680855290835281842094845260c983528184209084528252808320885163ffffffff1684529091529020548154869291610100900460ff1690811061116e5761116e611f20565b6000918252602091829020835160029290920201805463ffffffff191663ffffffff9092169190911781559101516001909101555b6020848101518551604080516001600160a01b038a1681529384019290925263ffffffff169082015233907fbdaa98f5444de6f9849a851f2c112d373c67c253895b3ca2c57204c0f6e1b58c9060600160405180910390a25050505050565b6001600160a01b0316600090815260cc602052604090205460ff1690565b6112286114ea565b6001600160a01b03811661128d5760405162461bcd60e51b815260206004820152602660248201527f4f776e61626c653a206e6577206f776e657220697320746865207a65726f206160448201526564647265737360d01b606482015260840161074b565b610a2d816117b5565b6000826001600160a01b0316636a3edf286040518163ffffffff1660e01b8152600401602060405180830381865afa1580156112d6573d6000803e3d6000fd5b505050506040513d601f19601f820116820180604052508101906112fa9190612088565b6040516307feec1960e21b81526001600160a01b0384811660048301529190911690631ffbb06490602401602060405180830381865afa158015611342573d6000803e3d6000fd5b505050506040513d601f19601f8201168201806040525081019061136691906120a5565b9392505050565b6000826001600160a01b0316636a3edf286040518163ffffffff1660e01b8152600401602060405180830381865afa1580156113ad573d6000803e3d6000fd5b505050506040513d601f19601f820116820180604052508101906113d19190612088565b6001600160a01b031663134e18f46040518163ffffffff1660e01b8152600401602060405180830381865afa15801561140e573d6000803e3d6000fd5b505050506040513d601f19601f820116820180604052508101906114329190612088565b604051633c3ad79560e21b81526001600160a01b038481166004830152919091169063f0eb5e5490602401602060405180830381865afa15801561147a573d6000803e3d6000fd5b505050506040513d601f19601f820116820180604052508101906113669190612088565b6001600160a01b03808516600090815260cb6020908152604080832087851684528252808320938616835292815282822063ffffffff8516835290522060010154421015949350505050565b6033546001600160a01b03163314610d4c5760405162461bcd60e51b815260206004820181905260248201527f4f776e61626c653a2063616c6c6572206973206e6f7420746865206f776e6572604482015260640161074b565b60005b6001600160a01b03808616600090815260ca602090815260408083209388168352929052205481101561163b576001600160a01b03808616600090815260ca6020908152604080832093881683529290529081208054839081106115ad576115ad611f20565b600091825260209091206002909102015463ffffffff1690506115d28686868461183e565b6001600160a01b03808716600090815260cb6020908152604080832089851684528252808320938816835292815282822063ffffffff8516835290529081208054859290611621908490611f4c565b90915550829150611633905081611f5f565b915050611547565b5050505050565b610a2d6114ea565b7f4910fdfa16fed3260ed0e7147f7cc6da11a60208b5b9406d12a635614ffd91435460ff161561167d57610a6f836118aa565b826001600160a01b03166352d1902d6040518163ffffffff1660e01b8152600401602060405180830381865afa9250505080156116d7575060408051601f3d908101601f191682019092526116d4918101906120c7565b60015b61173a5760405162461bcd60e51b815260206004820152602e60248201527f45524331393637557067726164653a206e657720696d706c656d656e7461746960448201526d6f6e206973206e6f74205555505360901b606482015260840161074b565b60008051602061214883398151915281146117a95760405162461bcd60e51b815260206004820152602960248201527f45524331393637557067726164653a20756e737570706f727465642070726f786044820152681a58589b195555525160ba1b606482015260840161074b565b50610a6f838383611946565b603380546001600160a01b038381166001600160a01b0319831681179093556040519116919082907f8be0079c531659141344cd1fd0a4f28419497f9722a3daafe3b4186f6b6457e090600090a35050565b600054610100900460ff1661182e5760405162461bcd60e51b815260040161074b906120e0565b61183661196b565b610d4c61199a565b61184a8484848461149e565b156118a4576001600160a01b03808516600090815260cb6020908152604080832087851684528252808320938616835292815282822063ffffffff851680845291529190209061189a9042611f4c565b6001820155600090555b50505050565b6001600160a01b0381163b6119175760405162461bcd60e51b815260206004820152602d60248201527f455243313936373a206e657720696d706c656d656e746174696f6e206973206e60448201526c1bdd08184818dbdb9d1c9858dd609a1b606482015260840161074b565b60008051602061214883398151915280546001600160a01b0319166001600160a01b0392909216919091179055565b61194f836119c1565b60008251118061195c5750805b15610a6f576118a48383611a01565b600054610100900460ff166119925760405162461bcd60e51b815260040161074b906120e0565b610d4c611a26565b600054610100900460ff16610d4c5760405162461bcd60e51b815260040161074b906120e0565b6119ca816118aa565b6040516001600160a01b038216907fbc7cd75a20ee27fd9adebab32041f755214dbc6bffa90cc0225b39da2e5c2d3b90600090a250565b6060611366838360405180606001604052806027815260200161216860279139611a56565b600054610100900460ff16611a4d5760405162461bcd60e51b815260040161074b906120e0565b610d4c336117b5565b6060600080856001600160a01b031685604051611a73919061212b565b600060405180830381855af49150503d8060008114611aae576040519150601f19603f3d011682016040523d82523d6000602084013e611ab3565b606091505b5091509150611ac486838387611ace565b9695505050505050565b60608315611b3d578251600003611b36576001600160a01b0385163b611b365760405162461bcd60e51b815260206004820152601d60248201527f416464726573733a2063616c6c20746f206e6f6e2d636f6e7472616374000000604482015260640161074b565b5081610704565b6107048383815115611b525781518083602001fd5b8060405162461bcd60e51b815260040161074b9190611c15565b6001600160a01b0381168114610a2d57600080fd5b60008060008060808587031215611b9757600080fd5b8435611ba281611b6c565b93506020850135611bb281611b6c565b9250604085013591506060850135611bc981611b6c565b939692955090935050565b600060208284031215611be657600080fd5b813561136681611b6c565b60005b83811015611c0c578181015183820152602001611bf4565b50506000910152565b6020815260008251806020840152611c34816040850160208701611bf1565b601f01601f19169190910160400192915050565b600080600060608486031215611c5d57600080fd5b8335611c6881611b6c565b92506020840135611c7881611b6c565b929592945050506040919091013590565b60008060408385031215611c9c57600080fd5b8235611ca781611b6c565b946020939093013593505050565b634e487b7160e01b600052604160045260246000fd5b604051601f8201601f1916810167ffffffffffffffff81118282101715611cf457611cf4611cb5565b604052919050565b60008060408385031215611d0f57600080fd5b8235611d1a81611b6c565b915060208381013567ffffffffffffffff80821115611d3857600080fd5b818601915086601f830112611d4c57600080fd5b813581811115611d5e57611d5e611cb5565b611d70601f8201601f19168501611ccb565b91508082528784828501011115611d8657600080fd5b80848401858401376000848284010152508093505050509250929050565b60008060408385031215611db757600080fd5b8235611dc281611b6c565b91506020830135611dd281611b6c565b809150509250929050565b602080825282518282018190526000919060409081850190868401855b82811015611e25578151805163ffffffff168552860151868501529284019290850190600101611dfa565b5091979650505050505050565b803563ffffffff81168114611e4657600080fd5b919050565b60008060008060808587031215611e6157600080fd5b8435611e6c81611b6c565b93506020850135611e7c81611b6c565b92506040850135611e8c81611b6c565b9150611e9a60608601611e32565b905092959194509250565b6000808284036060811215611eb957600080fd5b8335611ec481611b6c565b92506040601f1982011215611ed857600080fd5b506040516040810181811067ffffffffffffffff82111715611efc57611efc611cb5565b604052611f0b60208501611e32565b81526040939093013560208401525092909150565b634e487b7160e01b600052603260045260246000fd5b634e487b7160e01b600052601160045260246000fd5b80820180821115610f7257610f72611f36565b600060018201611f7157611f71611f36565b5060010190565b6020808252601e908201527f6f6e6c7920626f756e6420636f6d706c69616e63652063616e2063616c6c0000604082015260600190565b60208082526021908201527f6f6e6c7920636f6d706c69616e636520636f6e74726163742063616e2063616c6040820152601b60fa1b606082015260800190565b6020808252602c908201527f46756e6374696f6e206d7573742062652063616c6c6564207468726f7567682060408201526b19195b1959d85d1958d85b1b60a21b606082015260800190565b6020808252602c908201527f46756e6374696f6e206d7573742062652063616c6c6564207468726f7567682060408201526b6163746976652070726f787960a01b606082015260800190565b60006020828403121561209a57600080fd5b815161136681611b6c565b6000602082840312156120b757600080fd5b8151801515811461136657600080fd5b6000602082840312156120d957600080fd5b5051919050565b6020808252602b908201527f496e697469616c697a61626c653a20636f6e7472616374206973206e6f74206960408201526a6e697469616c697a696e6760a81b606082015260800190565b6000825161213d818460208701611bf1565b919091019291505056fe360894a13ba1a3210667c828492db98dca3e2076cc3735a920a3ca505d382bbc416464726573733a206c6f772d6c6576656c2064656c65676174652063616c6c206661696c6564f6cc97de1266c180cd39f3b311632644143ce7873d2927755382ad4b39e8ae00a26469706673582212201ed6e41de1a95f3567adfa578c3c71595ba0f6d50e541c7b1787dfe58d04920464736f6c63430008110033",
  "linkReferences": {},
  "deployedLinkReferences": {}
}