{
  "_format": "hh-sol-artifact-1",
  "contractName": "CountryRestrictModule",
  "sourceName": "contracts/compliance/modular/modules/CountryRestrictModule.sol",
  "abi": [
    {
      "anonymous": false,
      "inputs": [
        {
          "indexed": true,
          "internalType": "address",
          "name": "_compliance",
          "type": "address"
        },
        {
          "indexed": false,
          "internalType": "uint16",
          "name": "_country",
          "type": "uint16"
        }
      ],
      "name": "AddedRestrictedCountry",
      "type": "event"
    },
    {
      "anonymous": false,
      "inputs": [
        {
          "indexed": false,
          "internalType": "address",
          "name": "previousAdmin",
          "type": "address"
        },
        {
          "indexed": false,
          "internalType": "address",
          "name": "newAdmin",
          "type": "address"
        }
      ],
      "name": "AdminChanged",
      "type": "event"
    },
    {
      "anonymous": false,
      "inputs": [
        {
          "indexed": true,
          "internalType": "address",
          "name": "beacon",
          "type": "address"
        }
      ],
      "name": "BeaconUpgraded",
      "type": "event"
    },
    {
      "anonymous": false,
      "inputs": [
        {
          "indexed": true,
          "internalType": "address",
          "name": "_compliance",
          "type": "address"
        }
      ],
      "name": "ComplianceBound",
      "type": "event"
    },
    {
      "anonymous": false,
      "inputs": [
        {
          "indexed": true,
          "internalType": "address",
          "name": "_compliance",
          "type": "address"
        }
      ],
      "name": "ComplianceUnbound",
      "type": "event"
    },
    {
      "anonymous": false,
      "inputs": [
        {
          "indexed": false,
          "internalType": "uint8",
          "name": "version",
          "type": "uint8"
        }
      ],
      "name": "Initialized",
      "type": "event"
    },
    {
      "anonymous": false,
      "inputs": [
        {
          "indexed": true,
          "internalType": "address",
          "name": "previousOwner",
          "type": "address"
        },
        {
          "indexed": true,
          "internalType": "address",
          "name": "newOwner",
          "type": "address"
        }
      ],
      "name": "OwnershipTransferred",
      "type": "event"
    },
    {
      "anonymous": false,
      "inputs": [
        {
          "indexed": true,
          "internalType": "address",
          "name": "_compliance",
          "type": "address"
        },
        {
          "indexed": false,
          "internalType": "uint16",
          "name": "_country",
          "type": "uint16"
        }
      ],
      "name": "RemovedRestrictedCountry",
      "type": "event"
    },
    {
      "anonymous": false,
      "inputs": [
        {
          "indexed": true,
          "internalType": "address",
          "name": "implementation",
          "type": "address"
        }
      ],
      "name": "Upgraded",
      "type": "event"
    },
    {
      "inputs": [
        {
          "internalType": "uint16",
          "name": "_country",
          "type": "uint16"
        }
      ],
      "name": "addCountryRestriction",
      "outputs": [],
      "stateMutability": "nonpayable",
      "type": "function"
    },
    {
      "inputs": [
        {
          "internalType": "uint16[]",
          "name": "_countries",
          "type": "uint16[]"
        }
      ],
      "name": "batchRestrictCountries",
      "outputs": [],
      "stateMutability": "nonpayable",
      "type": "function"
    },
    {
      "inputs": [
        {
          "internalType": "uint16[]",
          "name": "_countries",
          "type": "uint16[]"
        }
      ],
      "name": "batchUnrestrictCountries",
      "outputs": [],
      "stateMutability": "nonpayable",
      "type": "function"
    },
    {
      "inputs": [
        {
          "internalType": "address",
          "name": "_compliance",
          "type": "address"
        }
      ],
      "name": "bindCompliance",
      "outputs": [],
      "stateMutability": "nonpayable",
      "type": "function"
    },
    {
      "inputs": [
        {
          "internalType": "address",
          "name": "",
          "type": "address"
        }
      ],
      "name": "canComplianceBind",
      "outputs": [
        {
          "internalType": "bool",
          "name": "",
          "type": "bool"
        }
      ],
      "stateMutability": "view",
      "type": "function"
    },
    {
      "inputs": [],
      "name": "initialize",
      "outputs": [],
      "stateMutability": "nonpayable",
      "type": "function"
    },
    {
      "inputs": [
        {
          "internalType": "address",
          "name": "_compliance",
          "type": "address"
        }
      ],
      "name": "isComplianceBound",
      "outputs": [
        {
          "internalType": "bool",
          "name": "",
          "type": "bool"
        }
      ],
      "stateMutability": "view",
      "type": "function"
    },
    {
      "inputs": [
        {
          "internalType": "address",
          "name": "_compliance",
          "type": "address"
        },
        {
          "internalType": "uint16",
          "name": "_country",
          "type": "uint16"
        }
      ],
      "name": "isCountryRestricted",
      "outputs": [
        {
          "internalType": "bool",
          "name": "",
          "type": "bool"
        }
      ],
      "stateMutability": "view",
      "type": "function"
    },
    {
      "inputs": [],
      "name": "isPlugAndPlay",
      "outputs": [
        {
          "internalType": "bool",
          "name": "",
          "type": "bool"
        }
      ],
      "stateMutability": "pure",
      "type": "function"
    },
    {
      "inputs": [
        {
          "internalType": "address",
          "name": "_from",
          "type": "address"
        },
        {
          "internalType": "uint256",
          "name": "_value",
          "type": "uint256"
        }
      ],
      "name": "moduleBurnAction",
      "outputs": [],
      "stateMutability": "nonpayable",
      "type": "function"
    },
    {
      "inputs": [
        {
          "internalType": "address",
          "name": "",
          "type": "address"
        },
        {
          "internalType": "address",
          "name": "_to",
          "type": "address"
        },
        {
          "internalType": "uint256",
          "name": "",
          "type": "uint256"
        },
        {
          "internalType": "address",
          "name": "_compliance",
          "type": "address"
        }
      ],
      "name": "moduleCheck",
      "outputs": [
        {
          "internalType": "bool",
          "name": "",
          "type": "bool"
        }
      ],
      "stateMutability": "view",
      "type": "function"
    },
    {
      "inputs": [
        {
          "internalType": "address",
          "name": "_to",
          "type": "address"
        },
        {
          "internalType": "uint256",
          "name": "_value",
          "type": "uint256"
        }
      ],
      "name": "moduleMintAction",
      "outputs": [],
      "stateMutability": "nonpayable",
      "type": "function"
    },
    {
      "inputs": [
        {
          "internalType": "address",
          "name": "_from",
          "type": "address"
        },
        {
          "internalType": "address",
          "name": "_to",
          "type": "address"
        },
        {
          "internalType": "uint256",
          "name": "_value",
          "type": "uint256"
        }
      ],
      "name": "moduleTransferAction",
      "outputs": [],
      "stateMutability": "nonpayable",
      "type": "function"
    },
    {
      "inputs": [],
      "name": "name",
      "outputs": [
        {
          "internalType": "string",
          "name": "_name",
          "type": "string"
        }
      ],
      "stateMutability": "pure",
      "type": "function"
    },
    {
      "inputs": [],
      "name": "owner",
      "outputs": [
        {
          "internalType": "address",
          "name": "",
          "type": "address"
        }
      ],
      "stateMutability": "view",
      "type": "function"
    },
    {
      "inputs": [],
      "name": "proxiableUUID",
      "outputs": [
        {
          "internalType": "bytes32",
          "name": "",
          "type": "bytes32"
        }
      ],
      "stateMutability": "view",
      "type": "function"
    },
    {
      "inputs": [
        {
          "internalType": "uint16",
          "name": "_country",
          "type": "uint16"
        }
      ],
      "name": "removeCountryRestriction",
      "outputs": [],
      "stateMutability": "nonpayable",
      "type": "function"
    },
    {
      "inputs": [],
      "name": "renounceOwnership",
      "outputs": [],
      "stateMutability": "nonpayable",
      "type": "function"
    },
    {
      "inputs": [
        {
          "internalType": "address",
          "name": "newOwner",
          "type": "address"
        }
      ],
      "name": "transferOwnership",
      "outputs": [],
      "stateMutability": "nonpayable",
      "type": "function"
    },
    {
      "inputs": [
        {
          "internalType": "address",
          "name": "_compliance",
          "type": "address"
        }
      ],
      "name": "unbindCompliance",
      "outputs": [],
      "stateMutability": "nonpayable",
      "type": "function"
    },
    {
      "inputs": [
        {
          "internalType": "address",
          "name": "newImplementation",
          "type": "address"
        }
      ],
      "name": "upgradeTo",
      "outputs": [],
      "stateMutability": "nonpayable",
      "type": "function"
    },
    {
      "inputs": [
        {
          "internalType": "address",
          "name": "newImplementation",
          "type": "address"
        },
        {
          "internalType": "bytes",
          "name": "data",
          "type": "bytes"
        }
      ],
      "name": "upgradeToAndCall",
      "outputs": [],
      "stateMutability": "payable",
      "type": "function"
    }
  ],
  "bytecode": "0x60a06040523060805234801561001457600080fd5b50608051611dad61004c6000396000818161092c0152818161096c01528181610b9201528181610bd20152610c650152611dad6000f3fe6080604052600436106101355760003560e01c80634f1ef286116100ab5780638da5cb5b1161006f5780638da5cb5b146103a7578063bcc21053146103cf578063bdf9a07e146103f0578063e6f5e80714610410578063f104a8c9146102a1578063f2fde38b1461042457600080fd5b80634f1ef2861461032757806352d1902d1461033a5780636aae7b261461035d578063715018a61461037d5780638129fc1c1461039257600080fd5b80632cb7e1ec116100fd5780632cb7e1ec1461021557806330236f4a146102355780633659cfe614610281578063372491a2146102a15780634a932544146102c15780634cf4d295146102e157600080fd5b8063013b7ce41461013a5780630333ce241461016f5780630694a5fb1461019157806306fdde03146101b1578063249c981d146101f5575b600080fd5b34801561014657600080fd5b5061015a610155366004611820565b610444565b60405190151581526020015b60405180910390f35b34801561017b57600080fd5b5061018f61018a366004611883565b61049c565b005b34801561019d57600080fd5b5061018f6101ac3660046118a0565b6105b3565b3480156101bd57600080fd5b506040805180820182526015815274436f756e74727952657374726963744d6f64756c6560581b6020820152905161016691906118e1565b34801561020157600080fd5b5061018f610210366004611914565b6106ca565b34801561022157600080fd5b5061018f610230366004611989565b6108e3565b34801561024157600080fd5b5061015a6102503660046119ca565b6001600160a01b038216600090815260c96020908152604080832061ffff8516845290915290205460ff1692915050565b34801561028d57600080fd5b5061018f61029c3660046118a0565b610922565b3480156102ad57600080fd5b5061018f6102bc366004611a03565b610a01565b3480156102cd57600080fd5b5061018f6102dc3660046118a0565b610a45565b3480156102ed57600080fd5b5061015a6102fc3660046118a0565b6001600160a01b03166000908152600080516020611d58833981519152602052604090205460ff1690565b61018f610335366004611a45565b610b88565b34801561034657600080fd5b5061034f610c58565b604051908152602001610166565b34801561036957600080fd5b5061018f610378366004611883565b610d0b565b34801561038957600080fd5b5061018f610e0b565b34801561039e57600080fd5b5061018f610e1f565b3480156103b357600080fd5b506033546040516001600160a01b039091168152602001610166565b3480156103db57600080fd5b5061015a6103ea3660046118a0565b50600190565b3480156103fc57600080fd5b5061018f61040b366004611914565b610f2f565b34801561041c57600080fd5b50600161015a565b34801561043057600080fd5b5061018f61043f3660046118a0565b611145565b60008061045183866111bb565b6001600160a01b038416600090815260c96020908152604080832061ffff8516845290915290205490915060ff161561048e576000915050610494565b60019150505b949350505050565b336000908152600080516020611d58833981519152602081905260409091205460ff166104e45760405162461bcd60e51b81526004016104db90611b09565b60405180910390fd5b33600090815260c96020908152604080832061ffff8616845290915290205460ff16156105535760405162461bcd60e51b815260206004820152601a60248201527f636f756e74727920616c7265616479207265737472696374656400000000000060448201526064016104db565b33600081815260c96020908152604080832061ffff871680855290835292819020805460ff19166001179055519182527f5e0addf626d7d7091ab7aebf34682c3203384648734760b24921e31ddcec0bb591015b60405180910390a25050565b336000908152600080516020611d58833981519152602081905260409091205460ff166105f25760405162461bcd60e51b81526004016104db90611b09565b600080516020611d588339815191526001600160a01b0383166106575760405162461bcd60e51b815260206004820152601f60248201527f696e76616c696420617267756d656e74202d207a65726f20616464726573730060448201526064016104db565b336001600160a01b0384161461067f5760405162461bcd60e51b81526004016104db90611b40565b6001600160a01b038316600081815260208390526040808220805460ff19169055517f408b49d9be1c914c52a0227e18a077e5a892dddf32a26cfa94a5d9708fad77189190a2505050565b336000908152600080516020611d58833981519152602081905260409091205460ff166107095760405162461bcd60e51b81526004016104db90611b09565b60c3821061076e5760405162461bcd60e51b815260206004820152602c60248201527f6d6178696d756d203139352063616e20626520756e726573747269637465642060448201526b0d2dc40dedcca40c4c2e8c6d60a31b60648201526084016104db565b60005b828110156108dd5733600090815260c9602052604081209085858481811061079b5761079b611b81565b90506020020160208101906107b09190611883565b61ffff16815260208101919091526040016000205460ff1615156001146108125760405162461bcd60e51b815260206004820152601660248201527518dbdd5b9d1c9e481b9bdd081c995cdd1c9a58dd195960521b60448201526064016104db565b33600090815260c9602052604081208186868581811061083457610834611b81565b90506020020160208101906108499190611883565b61ffff1681526020810191909152604001600020805460ff1916911515919091179055337ffb8bb575200aa114265a31c7d8ebeb4e395bd3cd9d0914c4bfa2a511d2011a7a8585848181106108a0576108a0611b81565b90506020020160208101906108b59190611883565b60405161ffff909116815260200160405180910390a2806108d581611b97565b915050610771565b50505050565b336000908152600080516020611d58833981519152602081905260409091205460ff166108dd5760405162461bcd60e51b81526004016104db90611b09565b6001600160a01b037f000000000000000000000000000000000000000000000000000000000000000016300361096a5760405162461bcd60e51b81526004016104db90611bbe565b7f00000000000000000000000000000000000000000000000000000000000000006001600160a01b03166109b3600080516020611d11833981519152546001600160a01b031690565b6001600160a01b0316146109d95760405162461bcd60e51b81526004016104db90611c0a565b6109e2816112f3565b604080516000808252602082019092526109fe918391906112fb565b50565b336000908152600080516020611d58833981519152602081905260409091205460ff16610a405760405162461bcd60e51b81526004016104db90611b09565b505050565b600080516020611d588339815191526001600160a01b038216610aaa5760405162461bcd60e51b815260206004820152601f60248201527f696e76616c696420617267756d656e74202d207a65726f20616464726573730060448201526064016104db565b6001600160a01b03821660009081526020829052604090205460ff1615610b135760405162461bcd60e51b815260206004820152601860248201527f636f6d706c69616e636520616c726561647920626f756e64000000000000000060448201526064016104db565b336001600160a01b03831614610b3b5760405162461bcd60e51b81526004016104db90611b40565b6001600160a01b038216600081815260208390526040808220805460ff19166001179055517f1f7b76c58fb697eb53c6c7c1becb96911516a136e24d7ced386b2355358b75a39190a25050565b6001600160a01b037f0000000000000000000000000000000000000000000000000000000000000000163003610bd05760405162461bcd60e51b81526004016104db90611bbe565b7f00000000000000000000000000000000000000000000000000000000000000006001600160a01b0316610c19600080516020611d11833981519152546001600160a01b031690565b6001600160a01b031614610c3f5760405162461bcd60e51b81526004016104db90611c0a565b610c48826112f3565b610c54828260016112fb565b5050565b6000306001600160a01b037f00000000000000000000000000000000000000000000000000000000000000001614610cf85760405162461bcd60e51b815260206004820152603860248201527f555550535570677261646561626c653a206d757374206e6f742062652063616c60448201527f6c6564207468726f7567682064656c656761746563616c6c000000000000000060648201526084016104db565b50600080516020611d1183398151915290565b336000908152600080516020611d58833981519152602081905260409091205460ff16610d4a5760405162461bcd60e51b81526004016104db90611b09565b33600090815260c96020908152604080832061ffff8616845290915290205460ff161515600114610db65760405162461bcd60e51b815260206004820152601660248201527518dbdd5b9d1c9e481b9bdd081c995cdd1c9a58dd195960521b60448201526064016104db565b33600081815260c96020908152604080832061ffff871680855290835292819020805460ff19169055519182527ffb8bb575200aa114265a31c7d8ebeb4e395bd3cd9d0914c4bfa2a511d2011a7a91016105a7565b610e13611466565b610e1d60006114c0565b565b600054610100900460ff1615808015610e3f5750600054600160ff909116105b80610e595750303b158015610e59575060005460ff166001145b610ebc5760405162461bcd60e51b815260206004820152602e60248201527f496e697469616c697a61626c653a20636f6e747261637420697320616c72656160448201526d191e481a5b9a5d1a585b1a5e995960921b60648201526084016104db565b6000805460ff191660011790558015610edf576000805461ff0019166101001790555b610ee7611512565b80156109fe576000805461ff0019169055604051600181527f7f26b83ff96e1f2b6a682f133852f6798a09c465da95921460cefb38474024989060200160405180910390a150565b336000908152600080516020611d58833981519152602081905260409091205460ff16610f6e5760405162461bcd60e51b81526004016104db90611b09565b60c38210610fd15760405162461bcd60e51b815260206004820152602a60248201527f6d6178696d756d203139352063616e206265207265737472696374656420696e604482015269040dedcca40c4c2e8c6d60b31b60648201526084016104db565b60005b828110156108dd5733600090815260c96020526040812090858584818110610ffe57610ffe611b81565b90506020020160208101906110139190611883565b61ffff16815260208101919091526040016000205460ff16156110785760405162461bcd60e51b815260206004820152601a60248201527f636f756e74727920616c7265616479207265737472696374656400000000000060448201526064016104db565b33600090815260c96020526040812060019186868581811061109c5761109c611b81565b90506020020160208101906110b19190611883565b61ffff1681526020810191909152604001600020805460ff1916911515919091179055337f5e0addf626d7d7091ab7aebf34682c3203384648734760b24921e31ddcec0bb585858481811061110857611108611b81565b905060200201602081019061111d9190611883565b60405161ffff909116815260200160405180910390a28061113d81611b97565b915050610fd4565b61114d611466565b6001600160a01b0381166111b25760405162461bcd60e51b815260206004820152602660248201527f4f776e61626c653a206e6577206f776e657220697320746865207a65726f206160448201526564647265737360d01b60648201526084016104db565b6109fe816114c0565b6000826001600160a01b0316636a3edf286040518163ffffffff1660e01b8152600401602060405180830381865afa1580156111fb573d6000803e3d6000fd5b505050506040513d601f19601f8201168201806040525081019061121f9190611c56565b6001600160a01b031663134e18f46040518163ffffffff1660e01b8152600401602060405180830381865afa15801561125c573d6000803e3d6000fd5b505050506040513d601f19601f820116820180604052508101906112809190611c56565b604051637e42683b60e01b81526001600160a01b0384811660048301529190911690637e42683b90602401602060405180830381865afa1580156112c8573d6000803e3d6000fd5b505050506040513d601f19601f820116820180604052508101906112ec9190611c73565b9392505050565b6109fe611466565b7f4910fdfa16fed3260ed0e7147f7cc6da11a60208b5b9406d12a635614ffd91435460ff161561132e57610a4083611549565b826001600160a01b03166352d1902d6040518163ffffffff1660e01b8152600401602060405180830381865afa925050508015611388575060408051601f3d908101601f1916820190925261138591810190611c90565b60015b6113eb5760405162461bcd60e51b815260206004820152602e60248201527f45524331393637557067726164653a206e657720696d706c656d656e7461746960448201526d6f6e206973206e6f74205555505360901b60648201526084016104db565b600080516020611d11833981519152811461145a5760405162461bcd60e51b815260206004820152602960248201527f45524331393637557067726164653a20756e737570706f727465642070726f786044820152681a58589b195555525160ba1b60648201526084016104db565b50610a408383836115e5565b6033546001600160a01b03163314610e1d5760405162461bcd60e51b815260206004820181905260248201527f4f776e61626c653a2063616c6c6572206973206e6f7420746865206f776e657260448201526064016104db565b603380546001600160a01b038381166001600160a01b0319831681179093556040519116919082907f8be0079c531659141344cd1fd0a4f28419497f9722a3daafe3b4186f6b6457e090600090a35050565b600054610100900460ff166115395760405162461bcd60e51b81526004016104db90611ca9565b61154161160a565b610e1d611639565b6001600160a01b0381163b6115b65760405162461bcd60e51b815260206004820152602d60248201527f455243313936373a206e657720696d706c656d656e746174696f6e206973206e60448201526c1bdd08184818dbdb9d1c9858dd609a1b60648201526084016104db565b600080516020611d1183398151915280546001600160a01b0319166001600160a01b0392909216919091179055565b6115ee83611660565b6000825111806115fb5750805b15610a40576108dd83836116a0565b600054610100900460ff166116315760405162461bcd60e51b81526004016104db90611ca9565b610e1d6116c5565b600054610100900460ff16610e1d5760405162461bcd60e51b81526004016104db90611ca9565b61166981611549565b6040516001600160a01b038216907fbc7cd75a20ee27fd9adebab32041f755214dbc6bffa90cc0225b39da2e5c2d3b90600090a250565b60606112ec8383604051806060016040528060278152602001611d31602791396116f5565b600054610100900460ff166116ec5760405162461bcd60e51b81526004016104db90611ca9565b610e1d336114c0565b6060600080856001600160a01b0316856040516117129190611cf4565b600060405180830381855af49150503d806000811461174d576040519150601f19603f3d011682016040523d82523d6000602084013e611752565b606091505b50915091506117638683838761176d565b9695505050505050565b606083156117dc5782516000036117d5576001600160a01b0385163b6117d55760405162461bcd60e51b815260206004820152601d60248201527f416464726573733a2063616c6c20746f206e6f6e2d636f6e747261637400000060448201526064016104db565b5081610494565b61049483838151156117f15781518083602001fd5b8060405162461bcd60e51b81526004016104db91906118e1565b6001600160a01b03811681146109fe57600080fd5b6000806000806080858703121561183657600080fd5b84356118418161180b565b935060208501356118518161180b565b92506040850135915060608501356118688161180b565b939692955090935050565b61ffff811681146109fe57600080fd5b60006020828403121561189557600080fd5b81356112ec81611873565b6000602082840312156118b257600080fd5b81356112ec8161180b565b60005b838110156118d85781810151838201526020016118c0565b50506000910152565b60208152600082518060208401526119008160408501602087016118bd565b601f01601f19169190910160400192915050565b6000806020838503121561192757600080fd5b823567ffffffffffffffff8082111561193f57600080fd5b818501915085601f83011261195357600080fd5b81358181111561196257600080fd5b8660208260051b850101111561197757600080fd5b60209290920196919550909350505050565b60008060006060848603121561199e57600080fd5b83356119a98161180b565b925060208401356119b98161180b565b929592945050506040919091013590565b600080604083850312156119dd57600080fd5b82356119e88161180b565b915060208301356119f881611873565b809150509250929050565b60008060408385031215611a1657600080fd5b8235611a218161180b565b946020939093013593505050565b634e487b7160e01b600052604160045260246000fd5b60008060408385031215611a5857600080fd5b8235611a638161180b565b9150602083013567ffffffffffffffff80821115611a8057600080fd5b818501915085601f830112611a9457600080fd5b813581811115611aa657611aa6611a2f565b604051601f8201601f19908116603f01168101908382118183101715611ace57611ace611a2f565b81604052828152886020848701011115611ae757600080fd5b8260208601602083013760006020848301015280955050505050509250929050565b6020808252601e908201527f6f6e6c7920626f756e6420636f6d706c69616e63652063616e2063616c6c0000604082015260600190565b60208082526021908201527f6f6e6c7920636f6d706c69616e636520636f6e74726163742063616e2063616c6040820152601b60fa1b606082015260800190565b634e487b7160e01b600052603260045260246000fd5b600060018201611bb757634e487b7160e01b600052601160045260246000fd5b5060010190565b6020808252602c908201527f46756e6374696f6e206d7573742062652063616c6c6564207468726f7567682060408201526b19195b1959d85d1958d85b1b60a21b606082015260800190565b6020808252602c908201527f46756e6374696f6e206d7573742062652063616c6c6564207468726f7567682060408201526b6163746976652070726f787960a01b606082015260800190565b600060208284031215611c6857600080fd5b81516112ec8161180b565b600060208284031215611c8557600080fd5b81516112ec81611873565b600060208284031215611ca257600080fd5b5051919050565b6020808252602b908201527f496e697469616c697a61626c653a20636f6e7472616374206973206e6f74206960408201526a6e697469616c697a696e6760a81b606082015260800190565b60008251611d068184602087016118bd565b919091019291505056fe360894a13ba1a3210667c828492db98dca3e2076cc3735a920a3ca505d382bbc416464726573733a206c6f772d6c6576656c2064656c65676174652063616c6c206661696c6564f6cc97de1266c180cd39f3b311632644143ce7873d2927755382ad4b39e8ae00a26469706673582212204ea2160253ec8423cd47e6492f9512826a5a47d641b63fa66320ae113b3b1b0264736f6c63430008110033",
  "linkReferences": {},
  "deployedLinkReferences": {}
}