{
  "_format": "hh-sol-artifact-1",
  "contractName": "ConditionalTransferModule",
  "sourceName": "contracts/compliance/modular/modules/ConditionalTransferModule.sol",
  "abi": [
    {
      "anonymous": false,
      "inputs": [
        {
          "indexed": false,
          "internalType": "address",
          "name": "previousAdmin",
          "type": "address"
        },
        {
          "indexed": false,
          "internalType": "address",
          "name": "newAdmin",
          "type": "address"
        }
      ],
      "name": "AdminChanged",
      "type": "event"
    },
    {
      "anonymous": false,
      "inputs": [
        {
          "indexed": false,
          "internalType": "address",
          "name": "_from",
          "type": "address"
        },
        {
          "indexed": false,
          "internalType": "address",
          "name": "_to",
          "type": "address"
        },
        {
          "indexed": false,
          "internalType": "uint256",
          "name": "_amount",
          "type": "uint256"
        },
        {
          "indexed": false,
          "internalType": "address",
          "name": "_token",
          "type": "address"
        }
      ],
      "name": "ApprovalRemoved",
      "type": "event"
    },
    {
      "anonymous": false,
      "inputs": [
        {
          "indexed": true,
          "internalType": "address",
          "name": "beacon",
          "type": "address"
        }
      ],
      "name": "BeaconUpgraded",
      "type": "event"
    },
    {
      "anonymous": false,
      "inputs": [
        {
          "indexed": true,
          "internalType": "address",
          "name": "_compliance",
          "type": "address"
        }
      ],
      "name": "ComplianceBound",
      "type": "event"
    },
    {
      "anonymous": false,
      "inputs": [
        {
          "indexed": true,
          "internalType": "address",
          "name": "_compliance",
          "type": "address"
        }
      ],
      "name": "ComplianceUnbound",
      "type": "event"
    },
    {
      "anonymous": false,
      "inputs": [
        {
          "indexed": false,
          "internalType": "uint8",
          "name": "version",
          "type": "uint8"
        }
      ],
      "name": "Initialized",
      "type": "event"
    },
    {
      "anonymous": false,
      "inputs": [
        {
          "indexed": true,
          "internalType": "address",
          "name": "previousOwner",
          "type": "address"
        },
        {
          "indexed": true,
          "internalType": "address",
          "name": "newOwner",
          "type": "address"
        }
      ],
      "name": "OwnershipTransferred",
      "type": "event"
    },
    {
      "anonymous": false,
      "inputs": [
        {
          "indexed": false,
          "internalType": "address",
          "name": "_from",
          "type": "address"
        },
        {
          "indexed": false,
          "internalType": "address",
          "name": "_to",
          "type": "address"
        },
        {
          "indexed": false,
          "internalType": "uint256",
          "name": "_amount",
          "type": "uint256"
        },
        {
          "indexed": false,
          "internalType": "address",
          "name": "_token",
          "type": "address"
        }
      ],
      "name": "TransferApproved",
      "type": "event"
    },
    {
      "anonymous": false,
      "inputs": [
        {
          "indexed": true,
          "internalType": "address",
          "name": "implementation",
          "type": "address"
        }
      ],
      "name": "Upgraded",
      "type": "event"
    },
    {
      "inputs": [
        {
          "internalType": "address",
          "name": "_from",
          "type": "address"
        },
        {
          "internalType": "address",
          "name": "_to",
          "type": "address"
        },
        {
          "internalType": "uint256",
          "name": "_amount",
          "type": "uint256"
        }
      ],
      "name": "approveTransfer",
      "outputs": [],
      "stateMutability": "nonpayable",
      "type": "function"
    },
    {
      "inputs": [
        {
          "internalType": "address[]",
          "name": "_from",
          "type": "address[]"
        },
        {
          "internalType": "address[]",
          "name": "_to",
          "type": "address[]"
        },
        {
          "internalType": "uint256[]",
          "name": "_amount",
          "type": "uint256[]"
        }
      ],
      "name": "batchApproveTransfers",
      "outputs": [],
      "stateMutability": "nonpayable",
      "type": "function"
    },
    {
      "inputs": [
        {
          "internalType": "address[]",
          "name": "_from",
          "type": "address[]"
        },
        {
          "internalType": "address[]",
          "name": "_to",
          "type": "address[]"
        },
        {
          "internalType": "uint256[]",
          "name": "_amount",
          "type": "uint256[]"
        }
      ],
      "name": "batchUnApproveTransfers",
      "outputs": [],
      "stateMutability": "nonpayable",
      "type": "function"
    },
    {
      "inputs": [
        {
          "internalType": "address",
          "name": "_compliance",
          "type": "address"
        }
      ],
      "name": "bindCompliance",
      "outputs": [],
      "stateMutability": "nonpayable",
      "type": "function"
    },
    {
      "inputs": [
        {
          "internalType": "address",
          "name": "_from",
          "type": "address"
        },
        {
          "internalType": "address",
          "name": "_to",
          "type": "address"
        },
        {
          "internalType": "uint256",
          "name": "_amount",
          "type": "uint256"
        },
        {
          "internalType": "address",
          "name": "_token",
          "type": "address"
        }
      ],
      "name": "calculateTransferHash",
      "outputs": [
        {
          "internalType": "bytes32",
          "name": "",
          "type": "bytes32"
        }
      ],
      "stateMutability": "pure",
      "type": "function"
    },
    {
      "inputs": [
        {
          "internalType": "address",
          "name": "",
          "type": "address"
        }
      ],
      "name": "canComplianceBind",
      "outputs": [
        {
          "internalType": "bool",
          "name": "",
          "type": "bool"
        }
      ],
      "stateMutability": "view",
      "type": "function"
    },
    {
      "inputs": [
        {
          "internalType": "address",
          "name": "_compliance",
          "type": "address"
        },
        {
          "internalType": "bytes32",
          "name": "_transferHash",
          "type": "bytes32"
        }
      ],
      "name": "getTransferApprovals",
      "outputs": [
        {
          "internalType": "uint256",
          "name": "",
          "type": "uint256"
        }
      ],
      "stateMutability": "view",
      "type": "function"
    },
    {
      "inputs": [],
      "name": "initialize",
      "outputs": [],
      "stateMutability": "nonpayable",
      "type": "function"
    },
    {
      "inputs": [
        {
          "internalType": "address",
          "name": "_compliance",
          "type": "address"
        }
      ],
      "name": "isComplianceBound",
      "outputs": [
        {
          "internalType": "bool",
          "name": "",
          "type": "bool"
        }
      ],
      "stateMutability": "view",
      "type": "function"
    },
    {
      "inputs": [],
      "name": "isPlugAndPlay",
      "outputs": [
        {
          "internalType": "bool",
          "name": "",
          "type": "bool"
        }
      ],
      "stateMutability": "pure",
      "type": "function"
    },
    {
      "inputs": [
        {
          "internalType": "address",
          "name": "_compliance",
          "type": "address"
        },
        {
          "internalType": "bytes32",
          "name": "_transferHash",
          "type": "bytes32"
        }
      ],
      "name": "isTransferApproved",
      "outputs": [
        {
          "internalType": "bool",
          "name": "",
          "type": "bool"
        }
      ],
      "stateMutability": "view",
      "type": "function"
    },
    {
      "inputs": [
        {
          "internalType": "address",
          "name": "_from",
          "type": "address"
        },
        {
          "internalType": "uint256",
          "name": "_value",
          "type": "uint256"
        }
      ],
      "name": "moduleBurnAction",
      "outputs": [],
      "stateMutability": "nonpayable",
      "type": "function"
    },
    {
      "inputs": [
        {
          "internalType": "address",
          "name": "_from",
          "type": "address"
        },
        {
          "internalType": "address",
          "name": "_to",
          "type": "address"
        },
        {
          "internalType": "uint256",
          "name": "_value",
          "type": "uint256"
        },
        {
          "internalType": "address",
          "name": "_compliance",
          "type": "address"
        }
      ],
      "name": "moduleCheck",
      "outputs": [
        {
          "internalType": "bool",
          "name": "",
          "type": "bool"
        }
      ],
      "stateMutability": "view",
      "type": "function"
    },
    {
      "inputs": [
        {
          "internalType": "address",
          "name": "_to",
          "type": "address"
        },
        {
          "internalType": "uint256",
          "name": "_value",
          "type": "uint256"
        }
      ],
      "name": "moduleMintAction",
      "outputs": [],
      "stateMutability": "nonpayable",
      "type": "function"
    },
    {
      "inputs": [
        {
          "internalType": "address",
          "name": "_from",
          "type": "address"
        },
        {
          "internalType": "address",
          "name": "_to",
          "type": "address"
        },
        {
          "internalType": "uint256",
          "name": "_value",
          "type": "uint256"
        }
      ],
      "name": "moduleTransferAction",
      "outputs": [],
      "stateMutability": "nonpayable",
      "type": "function"
    },
    {
      "inputs": [],
      "name": "name",
      "outputs": [
        {
          "internalType": "string",
          "name": "_name",
          "type": "string"
        }
      ],
      "stateMutability": "pure",
      "type": "function"
    },
    {
      "inputs": [],
      "name": "owner",
      "outputs": [
        {
          "internalType": "address",
          "name": "",
          "type": "address"
        }
      ],
      "stateMutability": "view",
      "type": "function"
    },
    {
      "inputs": [],
      "name": "proxiableUUID",
      "outputs": [
        {
          "internalType": "bytes32",
          "name": "",
          "type": "bytes32"
        }
      ],
      "stateMutability": "view",
      "type": "function"
    },
    {
      "inputs": [],
      "name": "renounceOwnership",
      "outputs": [],
      "stateMutability": "nonpayable",
      "type": "function"
    },
    {
      "inputs": [
        {
          "internalType": "address",
          "name": "newOwner",
          "type": "address"
        }
      ],
      "name": "transferOwnership",
      "outputs": [],
      "stateMutability": "nonpayable",
      "type": "function"
    },
    {
      "inputs": [
        {
          "internalType": "address",
          "name": "_from",
          "type": "address"
        },
        {
          "internalType": "address",
          "name": "_to",
          "type": "address"
        },
        {
          "internalType": "uint256",
          "name": "_amount",
          "type": "uint256"
        }
      ],
      "name": "unApproveTransfer",
      "outputs": [],
      "stateMutability": "nonpayable",
      "type": "function"
    },
    {
      "inputs": [
        {
          "internalType": "address",
          "name": "_compliance",
          "type": "address"
        }
      ],
      "name": "unbindCompliance",
      "outputs": [],
      "stateMutability": "nonpayable",
      "type": "function"
    },
    {
      "inputs": [
        {
          "internalType": "address",
          "name": "newImplementation",
          "type": "address"
        }
      ],
      "name": "upgradeTo",
      "outputs": [],
      "stateMutability": "nonpayable",
      "type": "function"
    },
    {
      "inputs": [
        {
          "internalType": "address",
          "name": "newImplementation",
          "type": "address"
        },
        {
          "internalType": "bytes",
          "name": "data",
          "type": "bytes"
        }
      ],
      "name": "upgradeToAndCall",
      "outputs": [],
      "stateMutability": "payable",
      "type": "function"
    }
  ],
  "bytecode": "0x60a06040523060805234801561001457600080fd5b50608051611c6761004c6000396000818161092a0152818161096a01528181610b9001528181610bd00152610c630152611c676000f3fe60806040526004361061014b5760003560e01c8063715018a6116100b6578063bdf5a4151161006f578063bdf5a41514610429578063e2cb5c341461046c578063e6f5e8071461048c578063f104a8c9146102c8578063f2fde38b146104a0578063f3850dbf146104c057600080fd5b8063715018a6146103765780638129fc1c1461038b57806382580805146103a05780638da5cb5b146103c057806393386519146103e8578063bcc210531461040857600080fd5b80633659cfe6116101085780633659cfe6146102a8578063372491a2146102c85780634a932544146102e85780634cf4d295146103085780634f1ef2861461034e57806352d1902d1461036157600080fd5b8063013b7ce4146101505780630694a5fb1461018557806306fdde03146101a75780631c7a1793146101f3578063202a6376146102135780632cb7e1ec14610288575b600080fd5b34801561015c57600080fd5b5061017061016b3660046116cd565b6104e0565b60405190151581526020015b60405180910390f35b34801561019157600080fd5b506101a56101a0366004611720565b610563565b005b3480156101b357600080fd5b50604080518082018252601981527f436f6e646974696f6e616c5472616e736665724d6f64756c65000000000000006020820152905161017c9190611761565b3480156101ff57600080fd5b506101a561020e366004611794565b610683565b34801561021f57600080fd5b5061027a61022e3660046116cd565b604080516001600160a01b0395861660208083019190915294861681830152606081019390935293166080808301919091528351808303909101815260a0909101909252815191012090565b60405190815260200161017c565b34801561029457600080fd5b506101a56102a3366004611794565b61084b565b3480156102b457600080fd5b506101a56102c3366004611720565b610920565b3480156102d457600080fd5b506101a56102e33660046117d5565b6109ff565b3480156102f457600080fd5b506101a5610303366004611720565b610a43565b34801561031457600080fd5b50610170610323366004611720565b6001600160a01b03166000908152600080516020611c12833981519152602052604090205460ff1690565b6101a561035c366004611817565b610b86565b34801561036d57600080fd5b5061027a610c56565b34801561038257600080fd5b506101a5610d09565b34801561039757600080fd5b506101a5610d1d565b3480156103ac57600080fd5b506101a56103bb366004611794565b610e2d565b3480156103cc57600080fd5b506033546040516001600160a01b03909116815260200161017c565b3480156103f457600080fd5b506101706104033660046117d5565b610f42565b34801561041457600080fd5b50610170610423366004611720565b50600190565b34801561043557600080fd5b5061027a6104443660046117d5565b6001600160a01b0391909116600090815260c960209081526040808320938352929052205490565b34801561047857600080fd5b506101a5610487366004611927565b610f7d565b34801561049857600080fd5b506001610170565b3480156104ac57600080fd5b506101a56104bb366004611720565b611052565b3480156104cc57600080fd5b506101a56104db366004611927565b6110c8565b60008061054b868686866001600160a01b0316636a3edf286040518163ffffffff1660e01b8152600401602060405180830381865afa158015610527573d6000803e3d6000fd5b505050506040513d601f19601f8201168201806040525081019061022e91906119c1565b90506105578382610f42565b9150505b949350505050565b336000908152600080516020611c12833981519152602081905260409091205460ff166105ab5760405162461bcd60e51b81526004016105a2906119de565b60405180910390fd5b600080516020611c128339815191526001600160a01b0383166106105760405162461bcd60e51b815260206004820152601f60248201527f696e76616c696420617267756d656e74202d207a65726f20616464726573730060448201526064016105a2565b336001600160a01b038416146106385760405162461bcd60e51b81526004016105a290611a15565b6001600160a01b038316600081815260208390526040808220805460ff19169055517f408b49d9be1c914c52a0227e18a077e5a892dddf32a26cfa94a5d9708fad77189190a2505050565b336000908152600080516020611c12833981519152602081905260409091205460ff166106c25760405162461bcd60e51b81526004016105a2906119de565b6000610708858585336001600160a01b0316636a3edf286040518163ffffffff1660e01b8152600401602060405180830381865afa158015610527573d6000803e3d6000fd5b33600090815260c9602090815260408083208484529091529020549091506107615760405162461bcd60e51b815260206004820152600c60248201526b1b9bdd08185c1c1c9bdd995960a21b60448201526064016105a2565b33600090815260c960209081526040808320848452909152812080549161078783611a6c565b91905055507f611476e33c1d844d9fa71ba7de6e7130e18b22971d28580fd76321e4af696356858585336001600160a01b0316636a3edf286040518163ffffffff1660e01b8152600401602060405180830381865afa1580156107ee573d6000803e3d6000fd5b505050506040513d601f19601f8201168201806040525081019061081291906119c1565b604080516001600160a01b0395861681529385166020850152830191909152909116606082015260800160405180910390a15050505050565b336000908152600080516020611c12833981519152602081905260409091205460ff1661088a5760405162461bcd60e51b81526004016105a2906119de565b60006108d0858585336001600160a01b0316636a3edf286040518163ffffffff1660e01b8152600401602060405180830381865afa158015610527573d6000803e3d6000fd5b33600090815260c960209081526040808320848452909152902054909150156109195733600090815260c960209081526040808320848452909152812080549161078783611a6c565b5050505050565b6001600160a01b037f00000000000000000000000000000000000000000000000000000000000000001630036109685760405162461bcd60e51b81526004016105a290611a83565b7f00000000000000000000000000000000000000000000000000000000000000006001600160a01b03166109b1600080516020611bcb833981519152546001600160a01b031690565b6001600160a01b0316146109d75760405162461bcd60e51b81526004016105a290611acf565b6109e081611193565b604080516000808252602082019092526109fc9183919061119b565b50565b336000908152600080516020611c12833981519152602081905260409091205460ff16610a3e5760405162461bcd60e51b81526004016105a2906119de565b505050565b600080516020611c128339815191526001600160a01b038216610aa85760405162461bcd60e51b815260206004820152601f60248201527f696e76616c696420617267756d656e74202d207a65726f20616464726573730060448201526064016105a2565b6001600160a01b03821660009081526020829052604090205460ff1615610b115760405162461bcd60e51b815260206004820152601860248201527f636f6d706c69616e636520616c726561647920626f756e64000000000000000060448201526064016105a2565b336001600160a01b03831614610b395760405162461bcd60e51b81526004016105a290611a15565b6001600160a01b038216600081815260208390526040808220805460ff19166001179055517f1f7b76c58fb697eb53c6c7c1becb96911516a136e24d7ced386b2355358b75a39190a25050565b6001600160a01b037f0000000000000000000000000000000000000000000000000000000000000000163003610bce5760405162461bcd60e51b81526004016105a290611a83565b7f00000000000000000000000000000000000000000000000000000000000000006001600160a01b0316610c17600080516020611bcb833981519152546001600160a01b031690565b6001600160a01b031614610c3d5760405162461bcd60e51b81526004016105a290611acf565b610c4682611193565b610c528282600161119b565b5050565b6000306001600160a01b037f00000000000000000000000000000000000000000000000000000000000000001614610cf65760405162461bcd60e51b815260206004820152603860248201527f555550535570677261646561626c653a206d757374206e6f742062652063616c60448201527f6c6564207468726f7567682064656c656761746563616c6c000000000000000060648201526084016105a2565b50600080516020611bcb83398151915290565b610d11611306565b610d1b6000611360565b565b600054610100900460ff1615808015610d3d5750600054600160ff909116105b80610d575750303b158015610d57575060005460ff166001145b610dba5760405162461bcd60e51b815260206004820152602e60248201527f496e697469616c697a61626c653a20636f6e747261637420697320616c72656160448201526d191e481a5b9a5d1a585b1a5e995960921b60648201526084016105a2565b6000805460ff191660011790558015610ddd576000805461ff0019166101001790555b610de56113b2565b80156109fc576000805461ff0019169055604051600181527f7f26b83ff96e1f2b6a682f133852f6798a09c465da95921460cefb38474024989060200160405180910390a150565b336000908152600080516020611c12833981519152602081905260409091205460ff16610e6c5760405162461bcd60e51b81526004016105a2906119de565b6000610eb2858585336001600160a01b0316636a3edf286040518163ffffffff1660e01b8152600401602060405180830381865afa158015610527573d6000803e3d6000fd5b33600090815260c9602090815260408083208484529091528120805492935090610edb83611b1b565b91905055507f776c895685d60b5ac3aa2c3381ed2b021825c000fbb0d8ff1359636700aa1651858585336001600160a01b0316636a3edf286040518163ffffffff1660e01b8152600401602060405180830381865afa1580156107ee573d6000803e3d6000fd5b6001600160a01b038216600090815260c96020908152604080832084845290915281205415610f7357506001610f77565b5060005b92915050565b336000908152600080516020611c12833981519152602081905260409091205460ff16610fbc5760405162461bcd60e51b81526004016105a2906119de565b60005b8681101561104857611036888883818110610fdc57610fdc611b34565b9050602002016020810190610ff19190611720565b87878481811061100357611003611b34565b90506020020160208101906110189190611720565b86868581811061102a5761102a611b34565b90506020020135610683565b8061104081611b1b565b915050610fbf565b5050505050505050565b61105a611306565b6001600160a01b0381166110bf5760405162461bcd60e51b815260206004820152602660248201527f4f776e61626c653a206e6577206f776e657220697320746865207a65726f206160448201526564647265737360d01b60648201526084016105a2565b6109fc81611360565b336000908152600080516020611c12833981519152602081905260409091205460ff166111075760405162461bcd60e51b81526004016105a2906119de565b60005b868110156110485761118188888381811061112757611127611b34565b905060200201602081019061113c9190611720565b87878481811061114e5761114e611b34565b90506020020160208101906111639190611720565b86868581811061117557611175611b34565b90506020020135610e2d565b8061118b81611b1b565b91505061110a565b6109fc611306565b7f4910fdfa16fed3260ed0e7147f7cc6da11a60208b5b9406d12a635614ffd91435460ff16156111ce57610a3e836113e9565b826001600160a01b03166352d1902d6040518163ffffffff1660e01b8152600401602060405180830381865afa925050508015611228575060408051601f3d908101601f1916820190925261122591810190611b4a565b60015b61128b5760405162461bcd60e51b815260206004820152602e60248201527f45524331393637557067726164653a206e657720696d706c656d656e7461746960448201526d6f6e206973206e6f74205555505360901b60648201526084016105a2565b600080516020611bcb83398151915281146112fa5760405162461bcd60e51b815260206004820152602960248201527f45524331393637557067726164653a20756e737570706f727465642070726f786044820152681a58589b195555525160ba1b60648201526084016105a2565b50610a3e838383611485565b6033546001600160a01b03163314610d1b5760405162461bcd60e51b815260206004820181905260248201527f4f776e61626c653a2063616c6c6572206973206e6f7420746865206f776e657260448201526064016105a2565b603380546001600160a01b038381166001600160a01b0319831681179093556040519116919082907f8be0079c531659141344cd1fd0a4f28419497f9722a3daafe3b4186f6b6457e090600090a35050565b600054610100900460ff166113d95760405162461bcd60e51b81526004016105a290611b63565b6113e16114b0565b610d1b6114df565b6001600160a01b0381163b6114565760405162461bcd60e51b815260206004820152602d60248201527f455243313936373a206e657720696d706c656d656e746174696f6e206973206e60448201526c1bdd08184818dbdb9d1c9858dd609a1b60648201526084016105a2565b600080516020611bcb83398151915280546001600160a01b0319166001600160a01b0392909216919091179055565b61148e83611506565b60008251118061149b5750805b15610a3e576114aa8383611546565b50505050565b600054610100900460ff166114d75760405162461bcd60e51b81526004016105a290611b63565b610d1b611572565b600054610100900460ff16610d1b5760405162461bcd60e51b81526004016105a290611b63565b61150f816113e9565b6040516001600160a01b038216907fbc7cd75a20ee27fd9adebab32041f755214dbc6bffa90cc0225b39da2e5c2d3b90600090a250565b606061156b8383604051806060016040528060278152602001611beb602791396115a2565b9392505050565b600054610100900460ff166115995760405162461bcd60e51b81526004016105a290611b63565b610d1b33611360565b6060600080856001600160a01b0316856040516115bf9190611bae565b600060405180830381855af49150503d80600081146115fa576040519150601f19603f3d011682016040523d82523d6000602084013e6115ff565b606091505b50915091506116108683838761161a565b9695505050505050565b60608315611689578251600003611682576001600160a01b0385163b6116825760405162461bcd60e51b815260206004820152601d60248201527f416464726573733a2063616c6c20746f206e6f6e2d636f6e747261637400000060448201526064016105a2565b508161055b565b61055b838381511561169e5781518083602001fd5b8060405162461bcd60e51b81526004016105a29190611761565b6001600160a01b03811681146109fc57600080fd5b600080600080608085870312156116e357600080fd5b84356116ee816116b8565b935060208501356116fe816116b8565b9250604085013591506060850135611715816116b8565b939692955090935050565b60006020828403121561173257600080fd5b813561156b816116b8565b60005b83811015611758578181015183820152602001611740565b50506000910152565b602081526000825180602084015261178081604085016020870161173d565b601f01601f19169190910160400192915050565b6000806000606084860312156117a957600080fd5b83356117b4816116b8565b925060208401356117c4816116b8565b929592945050506040919091013590565b600080604083850312156117e857600080fd5b82356117f3816116b8565b946020939093013593505050565b634e487b7160e01b600052604160045260246000fd5b6000806040838503121561182a57600080fd5b8235611835816116b8565b9150602083013567ffffffffffffffff8082111561185257600080fd5b818501915085601f83011261186657600080fd5b81358181111561187857611878611801565b604051601f8201601f19908116603f011681019083821181831017156118a0576118a0611801565b816040528281528860208487010111156118b957600080fd5b8260208601602083013760006020848301015280955050505050509250929050565b60008083601f8401126118ed57600080fd5b50813567ffffffffffffffff81111561190557600080fd5b6020830191508360208260051b850101111561192057600080fd5b9250929050565b6000806000806000806060878903121561194057600080fd5b863567ffffffffffffffff8082111561195857600080fd5b6119648a838b016118db565b9098509650602089013591508082111561197d57600080fd5b6119898a838b016118db565b909650945060408901359150808211156119a257600080fd5b506119af89828a016118db565b979a9699509497509295939492505050565b6000602082840312156119d357600080fd5b815161156b816116b8565b6020808252601e908201527f6f6e6c7920626f756e6420636f6d706c69616e63652063616e2063616c6c0000604082015260600190565b60208082526021908201527f6f6e6c7920636f6d706c69616e636520636f6e74726163742063616e2063616c6040820152601b60fa1b606082015260800190565b634e487b7160e01b600052601160045260246000fd5b600081611a7b57611a7b611a56565b506000190190565b6020808252602c908201527f46756e6374696f6e206d7573742062652063616c6c6564207468726f7567682060408201526b19195b1959d85d1958d85b1b60a21b606082015260800190565b6020808252602c908201527f46756e6374696f6e206d7573742062652063616c6c6564207468726f7567682060408201526b6163746976652070726f787960a01b606082015260800190565b600060018201611b2d57611b2d611a56565b5060010190565b634e487b7160e01b600052603260045260246000fd5b600060208284031215611b5c57600080fd5b5051919050565b6020808252602b908201527f496e697469616c697a61626c653a20636f6e7472616374206973206e6f74206960408201526a6e697469616c697a696e6760a81b606082015260800190565b60008251611bc081846020870161173d565b919091019291505056fe360894a13ba1a3210667c828492db98dca3e2076cc3735a920a3ca505d382bbc416464726573733a206c6f772d6c6576656c2064656c65676174652063616c6c206661696c6564f6cc97de1266c180cd39f3b311632644143ce7873d2927755382ad4b39e8ae00a26469706673582212203135fb2a7b803a1205619d21eb67f72d549b6b80ce9e0553f254bfa8a4330b1564736f6c63430008110033",
  "linkReferences": {},
  "deployedLinkReferences": {}
}