{
  "_format": "hh-sol-artifact-1",
  "contractName": "TestUpgradedCountryAllowModule",
  "sourceName": "contracts/_testContracts/TestUpgradedCountryAllowModule.sol",
  "abi": [
    {
      "inputs": [
        {
          "internalType": "address",
          "name": "_compliance",
          "type": "address"
        },
        {
          "internalType": "uint16",
          "name": "_country",
          "type": "uint16"
        }
      ],
      "name": "CountryAlreadyAllowed",
      "type": "error"
    },
    {
      "inputs": [
        {
          "internalType": "address",
          "name": "_compliance",
          "type": "address"
        },
        {
          "internalType": "uint16",
          "name": "_country",
          "type": "uint16"
        }
      ],
      "name": "CountryNotAllowed",
      "type": "error"
    },
    {
      "anonymous": false,
      "inputs": [
        {
          "indexed": false,
          "internalType": "address",
          "name": "previousAdmin",
          "type": "address"
        },
        {
          "indexed": false,
          "internalType": "address",
          "name": "newAdmin",
          "type": "address"
        }
      ],
      "name": "AdminChanged",
      "type": "event"
    },
    {
      "anonymous": false,
      "inputs": [
        {
          "indexed": true,
          "internalType": "address",
          "name": "beacon",
          "type": "address"
        }
      ],
      "name": "BeaconUpgraded",
      "type": "event"
    },
    {
      "anonymous": false,
      "inputs": [
        {
          "indexed": true,
          "internalType": "address",
          "name": "_compliance",
          "type": "address"
        }
      ],
      "name": "ComplianceBound",
      "type": "event"
    },
    {
      "anonymous": false,
      "inputs": [
        {
          "indexed": true,
          "internalType": "address",
          "name": "_compliance",
          "type": "address"
        }
      ],
      "name": "ComplianceUnbound",
      "type": "event"
    },
    {
      "anonymous": false,
      "inputs": [
        {
          "indexed": false,
          "internalType": "address",
          "name": "_compliance",
          "type": "address"
        },
        {
          "indexed": false,
          "internalType": "uint16",
          "name": "_country",
          "type": "uint16"
        }
      ],
      "name": "CountryAllowed",
      "type": "event"
    },
    {
      "anonymous": false,
      "inputs": [
        {
          "indexed": false,
          "internalType": "address",
          "name": "_compliance",
          "type": "address"
        },
        {
          "indexed": false,
          "internalType": "uint16",
          "name": "_country",
          "type": "uint16"
        }
      ],
      "name": "CountryUnallowed",
      "type": "event"
    },
    {
      "anonymous": false,
      "inputs": [
        {
          "indexed": false,
          "internalType": "uint8",
          "name": "version",
          "type": "uint8"
        }
      ],
      "name": "Initialized",
      "type": "event"
    },
    {
      "anonymous": false,
      "inputs": [
        {
          "indexed": true,
          "internalType": "address",
          "name": "previousOwner",
          "type": "address"
        },
        {
          "indexed": true,
          "internalType": "address",
          "name": "newOwner",
          "type": "address"
        }
      ],
      "name": "OwnershipTransferred",
      "type": "event"
    },
    {
      "anonymous": false,
      "inputs": [
        {
          "indexed": true,
          "internalType": "address",
          "name": "implementation",
          "type": "address"
        }
      ],
      "name": "Upgraded",
      "type": "event"
    },
    {
      "inputs": [
        {
          "internalType": "uint16",
          "name": "_country",
          "type": "uint16"
        }
      ],
      "name": "addAllowedCountry",
      "outputs": [],
      "stateMutability": "nonpayable",
      "type": "function"
    },
    {
      "inputs": [
        {
          "internalType": "uint16[]",
          "name": "_countries",
          "type": "uint16[]"
        }
      ],
      "name": "batchAllowCountries",
      "outputs": [],
      "stateMutability": "nonpayable",
      "type": "function"
    },
    {
      "inputs": [
        {
          "internalType": "uint16[]",
          "name": "_countries",
          "type": "uint16[]"
        }
      ],
      "name": "batchDisallowCountries",
      "outputs": [],
      "stateMutability": "nonpayable",
      "type": "function"
    },
    {
      "inputs": [
        {
          "internalType": "address",
          "name": "_compliance",
          "type": "address"
        }
      ],
      "name": "bindCompliance",
      "outputs": [],
      "stateMutability": "nonpayable",
      "type": "function"
    },
    {
      "inputs": [
        {
          "internalType": "address",
          "name": "",
          "type": "address"
        }
      ],
      "name": "canComplianceBind",
      "outputs": [
        {
          "internalType": "bool",
          "name": "",
          "type": "bool"
        }
      ],
      "stateMutability": "view",
      "type": "function"
    },
    {
      "inputs": [],
      "name": "getNewField",
      "outputs": [
        {
          "internalType": "uint256",
          "name": "",
          "type": "uint256"
        }
      ],
      "stateMutability": "view",
      "type": "function"
    },
    {
      "inputs": [],
      "name": "initialize",
      "outputs": [],
      "stateMutability": "nonpayable",
      "type": "function"
    },
    {
      "inputs": [
        {
          "internalType": "address",
          "name": "_compliance",
          "type": "address"
        }
      ],
      "name": "isComplianceBound",
      "outputs": [
        {
          "internalType": "bool",
          "name": "",
          "type": "bool"
        }
      ],
      "stateMutability": "view",
      "type": "function"
    },
    {
      "inputs": [
        {
          "internalType": "address",
          "name": "_compliance",
          "type": "address"
        },
        {
          "internalType": "uint16",
          "name": "_country",
          "type": "uint16"
        }
      ],
      "name": "isCountryAllowed",
      "outputs": [
        {
          "internalType": "bool",
          "name": "",
          "type": "bool"
        }
      ],
      "stateMutability": "view",
      "type": "function"
    },
    {
      "inputs": [],
      "name": "isPlugAndPlay",
      "outputs": [
        {
          "internalType": "bool",
          "name": "",
          "type": "bool"
        }
      ],
      "stateMutability": "pure",
      "type": "function"
    },
    {
      "inputs": [
        {
          "internalType": "address",
          "name": "_from",
          "type": "address"
        },
        {
          "internalType": "uint256",
          "name": "_value",
          "type": "uint256"
        }
      ],
      "name": "moduleBurnAction",
      "outputs": [],
      "stateMutability": "nonpayable",
      "type": "function"
    },
    {
      "inputs": [
        {
          "internalType": "address",
          "name": "",
          "type": "address"
        },
        {
          "internalType": "address",
          "name": "_to",
          "type": "address"
        },
        {
          "internalType": "uint256",
          "name": "",
          "type": "uint256"
        },
        {
          "internalType": "address",
          "name": "_compliance",
          "type": "address"
        }
      ],
      "name": "moduleCheck",
      "outputs": [
        {
          "internalType": "bool",
          "name": "",
          "type": "bool"
        }
      ],
      "stateMutability": "view",
      "type": "function"
    },
    {
      "inputs": [
        {
          "internalType": "address",
          "name": "_to",
          "type": "address"
        },
        {
          "internalType": "uint256",
          "name": "_value",
          "type": "uint256"
        }
      ],
      "name": "moduleMintAction",
      "outputs": [],
      "stateMutability": "nonpayable",
      "type": "function"
    },
    {
      "inputs": [
        {
          "internalType": "address",
          "name": "_from",
          "type": "address"
        },
        {
          "internalType": "address",
          "name": "_to",
          "type": "address"
        },
        {
          "internalType": "uint256",
          "name": "_value",
          "type": "uint256"
        }
      ],
      "name": "moduleTransferAction",
      "outputs": [],
      "stateMutability": "nonpayable",
      "type": "function"
    },
    {
      "inputs": [],
      "name": "name",
      "outputs": [
        {
          "internalType": "string",
          "name": "_name",
          "type": "string"
        }
      ],
      "stateMutability": "pure",
      "type": "function"
    },
    {
      "inputs": [],
      "name": "owner",
      "outputs": [
        {
          "internalType": "address",
          "name": "",
          "type": "address"
        }
      ],
      "stateMutability": "view",
      "type": "function"
    },
    {
      "inputs": [],
      "name": "proxiableUUID",
      "outputs": [
        {
          "internalType": "bytes32",
          "name": "",
          "type": "bytes32"
        }
      ],
      "stateMutability": "view",
      "type": "function"
    },
    {
      "inputs": [
        {
          "internalType": "uint16",
          "name": "_country",
          "type": "uint16"
        }
      ],
      "name": "removeAllowedCountry",
      "outputs": [],
      "stateMutability": "nonpayable",
      "type": "function"
    },
    {
      "inputs": [],
      "name": "renounceOwnership",
      "outputs": [],
      "stateMutability": "nonpayable",
      "type": "function"
    },
    {
      "inputs": [
        {
          "internalType": "uint256",
          "name": "value",
          "type": "uint256"
        }
      ],
      "name": "setNewField",
      "outputs": [],
      "stateMutability": "nonpayable",
      "type": "function"
    },
    {
      "inputs": [
        {
          "internalType": "address",
          "name": "newOwner",
          "type": "address"
        }
      ],
      "name": "transferOwnership",
      "outputs": [],
      "stateMutability": "nonpayable",
      "type": "function"
    },
    {
      "inputs": [
        {
          "internalType": "address",
          "name": "_compliance",
          "type": "address"
        }
      ],
      "name": "unbindCompliance",
      "outputs": [],
      "stateMutability": "nonpayable",
      "type": "function"
    },
    {
      "inputs": [
        {
          "internalType": "address",
          "name": "newImplementation",
          "type": "address"
        }
      ],
      "name": "upgradeTo",
      "outputs": [],
      "stateMutability": "nonpayable",
      "type": "function"
    },
    {
      "inputs": [
        {
          "internalType": "address",
          "name": "newImplementation",
          "type": "address"
        },
        {
          "internalType": "bytes",
          "name": "data",
          "type": "bytes"
        }
      ],
      "name": "upgradeToAndCall",
      "outputs": [],
      "stateMutability": "payable",
      "type": "function"
    }
  ],
  "bytecode": "0x60a06040523060805234801561001457600080fd5b50608051611be261004c6000396000818161064001528181610680015281816108a6015281816108e60152610a650152611be26000f3fe60806040526004361061014b5760003560e01c8063562a1f43116100b6578063bcc210531161006f578063bcc21053146103f7578063c08e150214610418578063d68b52d614610438578063e6f5e80714610458578063f104a8c914610274578063f2fde38b1461046c57600080fd5b8063562a1f4314610350578063715018a614610365578063771c52811461037a5780638129fc1c1461039a578063817544c3146103af5780638da5cb5b146103cf57600080fd5b8063372491a211610108578063372491a2146102745780634a932544146102945780634cf4d295146102b45780634f1ef286146102fa5780634f44425e1461030d57806352d1902d1461032d57600080fd5b8063013b7ce4146101505780630694a5fb1461018557806306fdde03146101a75780630f4f0904146101e85780632cb7e1ec146102345780633659cfe614610254575b600080fd5b34801561015c57600080fd5b5061017061016b36600461161f565b61048c565b60405190151581526020015b60405180910390f35b34801561019157600080fd5b506101a56101a0366004611672565b6104d1565b005b3480156101b357600080fd5b506040805180820182526012815271436f756e747279416c6c6f774d6f64756c6560701b6020820152905161017c91906116b3565b3480156101f457600080fd5b506101706102033660046116f6565b6001600160a01b038216600090815260c96020908152604080832061ffff8516845290915290205460ff1692915050565b34801561024057600080fd5b506101a561024f36600461172f565b6105f1565b34801561026057600080fd5b506101a561026f366004611672565b610636565b34801561028057600080fd5b506101a561028f366004611770565b610715565b3480156102a057600080fd5b506101a56102af366004611672565b610759565b3480156102c057600080fd5b506101706102cf366004611672565b6001600160a01b03166000908152600080516020611b8d833981519152602052604090205460ff1690565b6101a56103083660046117b2565b61089c565b34801561031957600080fd5b506101a5610328366004611876565b61096c565b34801561033957600080fd5b50610342610a58565b60405190815260200161017c565b34801561035c57600080fd5b5060ca54610342565b34801561037157600080fd5b506101a5610b0b565b34801561038657600080fd5b506101a5610395366004611893565b610b1f565b3480156103a657600080fd5b506101a5610c36565b3480156103bb57600080fd5b506101a56103ca366004611876565b610d46565b3480156103db57600080fd5b506033546040516001600160a01b03909116815260200161017c565b34801561040357600080fd5b50610170610412366004611672565b50600190565b34801561042457600080fd5b506101a5610433366004611893565b610e22565b34801561044457600080fd5b506101a5610453366004611908565b610f37565b34801561046457600080fd5b506001610170565b34801561047857600080fd5b506101a5610487366004611672565b610f44565b6000806104998386610fba565b6001600160a01b038416600090815260c96020908152604080832061ffff949094168352929052205460ff169150505b949350505050565b336000908152600080516020611b8d833981519152602081905260409091205460ff166105195760405162461bcd60e51b815260040161051090611921565b60405180910390fd5b600080516020611b8d8339815191526001600160a01b03831661057e5760405162461bcd60e51b815260206004820152601f60248201527f696e76616c696420617267756d656e74202d207a65726f2061646472657373006044820152606401610510565b336001600160a01b038416146105a65760405162461bcd60e51b815260040161051090611958565b6001600160a01b038316600081815260208390526040808220805460ff19169055517f408b49d9be1c914c52a0227e18a077e5a892dddf32a26cfa94a5d9708fad77189190a2505050565b336000908152600080516020611b8d833981519152602081905260409091205460ff166106305760405162461bcd60e51b815260040161051090611921565b50505050565b6001600160a01b037f000000000000000000000000000000000000000000000000000000000000000016300361067e5760405162461bcd60e51b815260040161051090611999565b7f00000000000000000000000000000000000000000000000000000000000000006001600160a01b03166106c7600080516020611b46833981519152546001600160a01b031690565b6001600160a01b0316146106ed5760405162461bcd60e51b8152600401610510906119e5565b6106f6816110f2565b60408051600080825260208201909252610712918391906110fa565b50565b336000908152600080516020611b8d833981519152602081905260409091205460ff166107545760405162461bcd60e51b815260040161051090611921565b505050565b600080516020611b8d8339815191526001600160a01b0382166107be5760405162461bcd60e51b815260206004820152601f60248201527f696e76616c696420617267756d656e74202d207a65726f2061646472657373006044820152606401610510565b6001600160a01b03821660009081526020829052604090205460ff16156108275760405162461bcd60e51b815260206004820152601860248201527f636f6d706c69616e636520616c726561647920626f756e6400000000000000006044820152606401610510565b336001600160a01b0383161461084f5760405162461bcd60e51b815260040161051090611958565b6001600160a01b038216600081815260208390526040808220805460ff19166001179055517f1f7b76c58fb697eb53c6c7c1becb96911516a136e24d7ced386b2355358b75a39190a25050565b6001600160a01b037f00000000000000000000000000000000000000000000000000000000000000001630036108e45760405162461bcd60e51b815260040161051090611999565b7f00000000000000000000000000000000000000000000000000000000000000006001600160a01b031661092d600080516020611b46833981519152546001600160a01b031690565b6001600160a01b0316146109535760405162461bcd60e51b8152600401610510906119e5565b61095c826110f2565b610968828260016110fa565b5050565b336000908152600080516020611b8d833981519152602081905260409091205460ff166109ab5760405162461bcd60e51b815260040161051090611921565b33600090815260c96020908152604080832061ffff8616845290915290205460ff1615156001036109f357338260405163af6d613560e01b8152600401610510929190611a31565b33600081815260c96020908152604080832061ffff8716845290915290819020805460ff19166001179055517f48c279381632bf87fca2680865a7384b6eb20716fd96b882b305a2198930a07491610a4c918590611a31565b60405180910390a15050565b6000306001600160a01b037f00000000000000000000000000000000000000000000000000000000000000001614610af85760405162461bcd60e51b815260206004820152603860248201527f555550535570677261646561626c653a206d757374206e6f742062652063616c60448201527f6c6564207468726f7567682064656c656761746563616c6c00000000000000006064820152608401610510565b50600080516020611b4683398151915290565b610b13611265565b610b1d60006112bf565b565b336000908152600080516020611b8d833981519152602081905260409091205460ff16610b5e5760405162461bcd60e51b815260040161051090611921565b60005b828110156106305733600090815260c960205260408120600191868685818110610b8d57610b8d611a4e565b9050602002016020810190610ba29190611876565b61ffff1681526020810191909152604001600020805460ff19169115159190911790557f48c279381632bf87fca2680865a7384b6eb20716fd96b882b305a2198930a07433858584818110610bf957610bf9611a4e565b9050602002016020810190610c0e9190611876565b604051610c1c929190611a31565b60405180910390a180610c2e81611a64565b915050610b61565b600054610100900460ff1615808015610c565750600054600160ff909116105b80610c705750303b158015610c70575060005460ff166001145b610cd35760405162461bcd60e51b815260206004820152602e60248201527f496e697469616c697a61626c653a20636f6e747261637420697320616c72656160448201526d191e481a5b9a5d1a585b1a5e995960921b6064820152608401610510565b6000805460ff191660011790558015610cf6576000805461ff0019166101001790555b610cfe611311565b8015610712576000805461ff0019169055604051600181527f7f26b83ff96e1f2b6a682f133852f6798a09c465da95921460cefb38474024989060200160405180910390a150565b336000908152600080516020611b8d833981519152602081905260409091205460ff16610d855760405162461bcd60e51b815260040161051090611921565b33600090815260c96020908152604080832061ffff8616845290915281205460ff1615159003610dcc57338260405163236a687560e11b8152600401610510929190611a31565b33600081815260c96020908152604080832061ffff8716845290915290819020805460ff19169055517f35c7374bcb82f2355cb703c8ab6162f87fe83b99618bdb78c6d19b07ddf060a291610a4c918590611a31565b336000908152600080516020611b8d833981519152602081905260409091205460ff16610e615760405162461bcd60e51b815260040161051090611921565b60005b828110156106305733600090815260c96020526040812081868685818110610e8e57610e8e611a4e565b9050602002016020810190610ea39190611876565b61ffff1681526020810191909152604001600020805460ff19169115159190911790557f35c7374bcb82f2355cb703c8ab6162f87fe83b99618bdb78c6d19b07ddf060a233858584818110610efa57610efa611a4e565b9050602002016020810190610f0f9190611876565b604051610f1d929190611a31565b60405180910390a180610f2f81611a64565b915050610e64565b610f3f611265565b60ca55565b610f4c611265565b6001600160a01b038116610fb15760405162461bcd60e51b815260206004820152602660248201527f4f776e61626c653a206e6577206f776e657220697320746865207a65726f206160448201526564647265737360d01b6064820152608401610510565b610712816112bf565b6000826001600160a01b0316636a3edf286040518163ffffffff1660e01b8152600401602060405180830381865afa158015610ffa573d6000803e3d6000fd5b505050506040513d601f19601f8201168201806040525081019061101e9190611a8b565b6001600160a01b031663134e18f46040518163ffffffff1660e01b8152600401602060405180830381865afa15801561105b573d6000803e3d6000fd5b505050506040513d601f19601f8201168201806040525081019061107f9190611a8b565b604051637e42683b60e01b81526001600160a01b0384811660048301529190911690637e42683b90602401602060405180830381865afa1580156110c7573d6000803e3d6000fd5b505050506040513d601f19601f820116820180604052508101906110eb9190611aa8565b9392505050565b610712611265565b7f4910fdfa16fed3260ed0e7147f7cc6da11a60208b5b9406d12a635614ffd91435460ff161561112d5761075483611348565b826001600160a01b03166352d1902d6040518163ffffffff1660e01b8152600401602060405180830381865afa925050508015611187575060408051601f3d908101601f1916820190925261118491810190611ac5565b60015b6111ea5760405162461bcd60e51b815260206004820152602e60248201527f45524331393637557067726164653a206e657720696d706c656d656e7461746960448201526d6f6e206973206e6f74205555505360901b6064820152608401610510565b600080516020611b4683398151915281146112595760405162461bcd60e51b815260206004820152602960248201527f45524331393637557067726164653a20756e737570706f727465642070726f786044820152681a58589b195555525160ba1b6064820152608401610510565b506107548383836113e4565b6033546001600160a01b03163314610b1d5760405162461bcd60e51b815260206004820181905260248201527f4f776e61626c653a2063616c6c6572206973206e6f7420746865206f776e65726044820152606401610510565b603380546001600160a01b038381166001600160a01b0319831681179093556040519116919082907f8be0079c531659141344cd1fd0a4f28419497f9722a3daafe3b4186f6b6457e090600090a35050565b600054610100900460ff166113385760405162461bcd60e51b815260040161051090611ade565b611340611409565b610b1d611438565b6001600160a01b0381163b6113b55760405162461bcd60e51b815260206004820152602d60248201527f455243313936373a206e657720696d706c656d656e746174696f6e206973206e60448201526c1bdd08184818dbdb9d1c9858dd609a1b6064820152608401610510565b600080516020611b4683398151915280546001600160a01b0319166001600160a01b0392909216919091179055565b6113ed8361145f565b6000825111806113fa5750805b1561075457610630838361149f565b600054610100900460ff166114305760405162461bcd60e51b815260040161051090611ade565b610b1d6114c4565b600054610100900460ff16610b1d5760405162461bcd60e51b815260040161051090611ade565b61146881611348565b6040516001600160a01b038216907fbc7cd75a20ee27fd9adebab32041f755214dbc6bffa90cc0225b39da2e5c2d3b90600090a250565b60606110eb8383604051806060016040528060278152602001611b66602791396114f4565b600054610100900460ff166114eb5760405162461bcd60e51b815260040161051090611ade565b610b1d336112bf565b6060600080856001600160a01b0316856040516115119190611b29565b600060405180830381855af49150503d806000811461154c576040519150601f19603f3d011682016040523d82523d6000602084013e611551565b606091505b50915091506115628683838761156c565b9695505050505050565b606083156115db5782516000036115d4576001600160a01b0385163b6115d45760405162461bcd60e51b815260206004820152601d60248201527f416464726573733a2063616c6c20746f206e6f6e2d636f6e74726163740000006044820152606401610510565b50816104c9565b6104c983838151156115f05781518083602001fd5b8060405162461bcd60e51b815260040161051091906116b3565b6001600160a01b038116811461071257600080fd5b6000806000806080858703121561163557600080fd5b84356116408161160a565b935060208501356116508161160a565b92506040850135915060608501356116678161160a565b939692955090935050565b60006020828403121561168457600080fd5b81356110eb8161160a565b60005b838110156116aa578181015183820152602001611692565b50506000910152565b60208152600082518060208401526116d281604085016020870161168f565b601f01601f19169190910160400192915050565b61ffff8116811461071257600080fd5b6000806040838503121561170957600080fd5b82356117148161160a565b91506020830135611724816116e6565b809150509250929050565b60008060006060848603121561174457600080fd5b833561174f8161160a565b9250602084013561175f8161160a565b929592945050506040919091013590565b6000806040838503121561178357600080fd5b823561178e8161160a565b946020939093013593505050565b634e487b7160e01b600052604160045260246000fd5b600080604083850312156117c557600080fd5b82356117d08161160a565b9150602083013567ffffffffffffffff808211156117ed57600080fd5b818501915085601f83011261180157600080fd5b8135818111156118135761181361179c565b604051601f8201601f19908116603f0116810190838211818310171561183b5761183b61179c565b8160405282815288602084870101111561185457600080fd5b8260208601602083013760006020848301015280955050505050509250929050565b60006020828403121561188857600080fd5b81356110eb816116e6565b600080602083850312156118a657600080fd5b823567ffffffffffffffff808211156118be57600080fd5b818501915085601f8301126118d257600080fd5b8135818111156118e157600080fd5b8660208260051b85010111156118f657600080fd5b60209290920196919550909350505050565b60006020828403121561191a57600080fd5b5035919050565b6020808252601e908201527f6f6e6c7920626f756e6420636f6d706c69616e63652063616e2063616c6c0000604082015260600190565b60208082526021908201527f6f6e6c7920636f6d706c69616e636520636f6e74726163742063616e2063616c6040820152601b60fa1b606082015260800190565b6020808252602c908201527f46756e6374696f6e206d7573742062652063616c6c6564207468726f7567682060408201526b19195b1959d85d1958d85b1b60a21b606082015260800190565b6020808252602c908201527f46756e6374696f6e206d7573742062652063616c6c6564207468726f7567682060408201526b6163746976652070726f787960a01b606082015260800190565b6001600160a01b0392909216825261ffff16602082015260400190565b634e487b7160e01b600052603260045260246000fd5b600060018201611a8457634e487b7160e01b600052601160045260246000fd5b5060010190565b600060208284031215611a9d57600080fd5b81516110eb8161160a565b600060208284031215611aba57600080fd5b81516110eb816116e6565b600060208284031215611ad757600080fd5b5051919050565b6020808252602b908201527f496e697469616c697a61626c653a20636f6e7472616374206973206e6f74206960408201526a6e697469616c697a696e6760a81b606082015260800190565b60008251611b3b81846020870161168f565b919091019291505056fe360894a13ba1a3210667c828492db98dca3e2076cc3735a920a3ca505d382bbc416464726573733a206c6f772d6c6576656c2064656c65676174652063616c6c206661696c6564f6cc97de1266c180cd39f3b311632644143ce7873d2927755382ad4b39e8ae00a2646970667358221220bf4d435254326b3d8c7bc062109bc0993150f8871d64eb4b1677d350f358106f64736f6c63430008110033",
  "linkReferences": {},
  "deployedLinkReferences": {}
}