{
  "_format": "hh-sol-artifact-1",
  "contractName": "ExchangeMonthlyLimitsModule",
  "sourceName": "contracts/compliance/modular/modules/ExchangeMonthlyLimitsModule.sol",
  "abi": [
    {
      "inputs": [
        {
          "internalType": "address",
          "name": "_exchangeID",
          "type": "address"
        }
      ],
      "name": "ONCHAINIDAlreadyTaggedAsExchange",
      "type": "error"
    },
    {
      "inputs": [
        {
          "internalType": "address",
          "name": "_exchangeID",
          "type": "address"
        }
      ],
      "name": "ONCHAINIDNotTaggedAsExchange",
      "type": "error"
    },
    {
      "anonymous": false,
      "inputs": [
        {
          "indexed": false,
          "internalType": "address",
          "name": "previousAdmin",
          "type": "address"
        },
        {
          "indexed": false,
          "internalType": "address",
          "name": "newAdmin",
          "type": "address"
        }
      ],
      "name": "AdminChanged",
      "type": "event"
    },
    {
      "anonymous": false,
      "inputs": [
        {
          "indexed": true,
          "internalType": "address",
          "name": "beacon",
          "type": "address"
        }
      ],
      "name": "BeaconUpgraded",
      "type": "event"
    },
    {
      "anonymous": false,
      "inputs": [
        {
          "indexed": true,
          "internalType": "address",
          "name": "_compliance",
          "type": "address"
        }
      ],
      "name": "ComplianceBound",
      "type": "event"
    },
    {
      "anonymous": false,
      "inputs": [
        {
          "indexed": true,
          "internalType": "address",
          "name": "_compliance",
          "type": "address"
        }
      ],
      "name": "ComplianceUnbound",
      "type": "event"
    },
    {
      "anonymous": false,
      "inputs": [
        {
          "indexed": false,
          "internalType": "address",
          "name": "_newExchangeID",
          "type": "address"
        }
      ],
      "name": "ExchangeIDAdded",
      "type": "event"
    },
    {
      "anonymous": false,
      "inputs": [
        {
          "indexed": false,
          "internalType": "address",
          "name": "_exchangeID",
          "type": "address"
        }
      ],
      "name": "ExchangeIDRemoved",
      "type": "event"
    },
    {
      "anonymous": false,
      "inputs": [
        {
          "indexed": true,
          "internalType": "address",
          "name": "compliance",
          "type": "address"
        },
        {
          "indexed": false,
          "internalType": "address",
          "name": "_exchangeID",
          "type": "address"
        },
        {
          "indexed": false,
          "internalType": "uint256",
          "name": "_newExchangeMonthlyLimit",
          "type": "uint256"
        }
      ],
      "name": "ExchangeMonthlyLimitUpdated",
      "type": "event"
    },
    {
      "anonymous": false,
      "inputs": [
        {
          "indexed": false,
          "internalType": "uint8",
          "name": "version",
          "type": "uint8"
        }
      ],
      "name": "Initialized",
      "type": "event"
    },
    {
      "anonymous": false,
      "inputs": [
        {
          "indexed": true,
          "internalType": "address",
          "name": "previousOwner",
          "type": "address"
        },
        {
          "indexed": true,
          "internalType": "address",
          "name": "newOwner",
          "type": "address"
        }
      ],
      "name": "OwnershipTransferred",
      "type": "event"
    },
    {
      "anonymous": false,
      "inputs": [
        {
          "indexed": true,
          "internalType": "address",
          "name": "implementation",
          "type": "address"
        }
      ],
      "name": "Upgraded",
      "type": "event"
    },
    {
      "inputs": [
        {
          "internalType": "address",
          "name": "_exchangeID",
          "type": "address"
        }
      ],
      "name": "addExchangeID",
      "outputs": [],
      "stateMutability": "nonpayable",
      "type": "function"
    },
    {
      "inputs": [
        {
          "internalType": "address",
          "name": "_compliance",
          "type": "address"
        }
      ],
      "name": "bindCompliance",
      "outputs": [],
      "stateMutability": "nonpayable",
      "type": "function"
    },
    {
      "inputs": [
        {
          "internalType": "address",
          "name": "",
          "type": "address"
        }
      ],
      "name": "canComplianceBind",
      "outputs": [
        {
          "internalType": "bool",
          "name": "",
          "type": "bool"
        }
      ],
      "stateMutability": "view",
      "type": "function"
    },
    {
      "inputs": [
        {
          "internalType": "address",
          "name": "compliance",
          "type": "address"
        },
        {
          "internalType": "address",
          "name": "_exchangeID",
          "type": "address"
        }
      ],
      "name": "getExchangeMonthlyLimit",
      "outputs": [
        {
          "internalType": "uint256",
          "name": "",
          "type": "uint256"
        }
      ],
      "stateMutability": "view",
      "type": "function"
    },
    {
      "inputs": [
        {
          "internalType": "address",
          "name": "compliance",
          "type": "address"
        },
        {
          "internalType": "address",
          "name": "_exchangeID",
          "type": "address"
        },
        {
          "internalType": "address",
          "name": "_investorID",
          "type": "address"
        }
      ],
      "name": "getMonthlyCounter",
      "outputs": [
        {
          "internalType": "uint256",
          "name": "",
          "type": "uint256"
        }
      ],
      "stateMutability": "view",
      "type": "function"
    },
    {
      "inputs": [
        {
          "internalType": "address",
          "name": "compliance",
          "type": "address"
        },
        {
          "internalType": "address",
          "name": "_exchangeID",
          "type": "address"
        },
        {
          "internalType": "address",
          "name": "_investorID",
          "type": "address"
        }
      ],
      "name": "getMonthlyTimer",
      "outputs": [
        {
          "internalType": "uint256",
          "name": "",
          "type": "uint256"
        }
      ],
      "stateMutability": "view",
      "type": "function"
    },
    {
      "inputs": [],
      "name": "initialize",
      "outputs": [],
      "stateMutability": "nonpayable",
      "type": "function"
    },
    {
      "inputs": [
        {
          "internalType": "address",
          "name": "_compliance",
          "type": "address"
        }
      ],
      "name": "isComplianceBound",
      "outputs": [
        {
          "internalType": "bool",
          "name": "",
          "type": "bool"
        }
      ],
      "stateMutability": "view",
      "type": "function"
    },
    {
      "inputs": [
        {
          "internalType": "address",
          "name": "_exchangeID",
          "type": "address"
        }
      ],
      "name": "isExchangeID",
      "outputs": [
        {
          "internalType": "bool",
          "name": "",
          "type": "bool"
        }
      ],
      "stateMutability": "view",
      "type": "function"
    },
    {
      "inputs": [],
      "name": "isPlugAndPlay",
      "outputs": [
        {
          "internalType": "bool",
          "name": "",
          "type": "bool"
        }
      ],
      "stateMutability": "pure",
      "type": "function"
    },
    {
      "inputs": [
        {
          "internalType": "address",
          "name": "",
          "type": "address"
        },
        {
          "internalType": "uint256",
          "name": "",
          "type": "uint256"
        }
      ],
      "name": "moduleBurnAction",
      "outputs": [],
      "stateMutability": "nonpayable",
      "type": "function"
    },
    {
      "inputs": [
        {
          "internalType": "address",
          "name": "_from",
          "type": "address"
        },
        {
          "internalType": "address",
          "name": "_to",
          "type": "address"
        },
        {
          "internalType": "uint256",
          "name": "_value",
          "type": "uint256"
        },
        {
          "internalType": "address",
          "name": "_compliance",
          "type": "address"
        }
      ],
      "name": "moduleCheck",
      "outputs": [
        {
          "internalType": "bool",
          "name": "",
          "type": "bool"
        }
      ],
      "stateMutability": "view",
      "type": "function"
    },
    {
      "inputs": [
        {
          "internalType": "address",
          "name": "",
          "type": "address"
        },
        {
          "internalType": "uint256",
          "name": "",
          "type": "uint256"
        }
      ],
      "name": "moduleMintAction",
      "outputs": [],
      "stateMutability": "nonpayable",
      "type": "function"
    },
    {
      "inputs": [
        {
          "internalType": "address",
          "name": "_from",
          "type": "address"
        },
        {
          "internalType": "address",
          "name": "_to",
          "type": "address"
        },
        {
          "internalType": "uint256",
          "name": "_value",
          "type": "uint256"
        }
      ],
      "name": "moduleTransferAction",
      "outputs": [],
      "stateMutability": "nonpayable",
      "type": "function"
    },
    {
      "inputs": [],
      "name": "name",
      "outputs": [
        {
          "internalType": "string",
          "name": "_name",
          "type": "string"
        }
      ],
      "stateMutability": "pure",
      "type": "function"
    },
    {
      "inputs": [],
      "name": "owner",
      "outputs": [
        {
          "internalType": "address",
          "name": "",
          "type": "address"
        }
      ],
      "stateMutability": "view",
      "type": "function"
    },
    {
      "inputs": [],
      "name": "proxiableUUID",
      "outputs": [
        {
          "internalType": "bytes32",
          "name": "",
          "type": "bytes32"
        }
      ],
      "stateMutability": "view",
      "type": "function"
    },
    {
      "inputs": [
        {
          "internalType": "address",
          "name": "_exchangeID",
          "type": "address"
        }
      ],
      "name": "removeExchangeID",
      "outputs": [],
      "stateMutability": "nonpayable",
      "type": "function"
    },
    {
      "inputs": [],
      "name": "renounceOwnership",
      "outputs": [],
      "stateMutability": "nonpayable",
      "type": "function"
    },
    {
      "inputs": [
        {
          "internalType": "address",
          "name": "_exchangeID",
          "type": "address"
        },
        {
          "internalType": "uint256",
          "name": "_newExchangeMonthlyLimit",
          "type": "uint256"
        }
      ],
      "name": "setExchangeMonthlyLimit",
      "outputs": [],
      "stateMutability": "nonpayable",
      "type": "function"
    },
    {
      "inputs": [
        {
          "internalType": "address",
          "name": "newOwner",
          "type": "address"
        }
      ],
      "name": "transferOwnership",
      "outputs": [],
      "stateMutability": "nonpayable",
      "type": "function"
    },
    {
      "inputs": [
        {
          "internalType": "address",
          "name": "_compliance",
          "type": "address"
        }
      ],
      "name": "unbindCompliance",
      "outputs": [],
      "stateMutability": "nonpayable",
      "type": "function"
    },
    {
      "inputs": [
        {
          "internalType": "address",
          "name": "newImplementation",
          "type": "address"
        }
      ],
      "name": "upgradeTo",
      "outputs": [],
      "stateMutability": "nonpayable",
      "type": "function"
    },
    {
      "inputs": [
        {
          "internalType": "address",
          "name": "newImplementation",
          "type": "address"
        },
        {
          "internalType": "bytes",
          "name": "data",
          "type": "bytes"
        }
      ],
      "name": "upgradeToAndCall",
      "outputs": [],
      "stateMutability": "payable",
      "type": "function"
    }
  ],
  "bytecode": "0x60a06040523060805234801561001457600080fd5b50608051611c7761004c600039600081816108310152818161087101528181610a9701528181610ad70152610b6a0152611c776000f3fe60806040526004361061014b5760003560e01c8063715018a6116100b6578063c5b999691161006f578063c5b99969146103e2578063cafa20d514610402578063d22579fb14610452578063e6f5e80714610472578063f104a8c914610253578063f2fde38b1461048657600080fd5b8063715018a61461032f57806374436d97146103445780638129fc1c146103645780638da5cb5b14610379578063a9336def146103a1578063bcc21053146103c157600080fd5b8063372491a211610108578063372491a2146102535780634a932544146102735780634cf4d295146102935780634f1ef286146102d957806352d1902d146102ec578063616c65891461030f57600080fd5b8063013b7ce4146101505780630694a5fb1461018557806306fdde03146101a75780632bb5e721146101f35780632cb7e1ec146102135780633659cfe614610233575b600080fd5b34801561015c57600080fd5b5061017061016b366004611758565b6104a6565b60405190151581526020015b60405180910390f35b34801561019157600080fd5b506101a56101a03660046117ab565b6105e2565b005b3480156101b357600080fd5b50604080518082018252601b81527f45786368616e67654d6f6e74686c794c696d6974734d6f64756c6500000000006020820152905161017c91906117ec565b3480156101ff57600080fd5b506101a561020e3660046117ab565b610702565b34801561021f57600080fd5b506101a561022e36600461181f565b610797565b34801561023f57600080fd5b506101a561024e3660046117ab565b610827565b34801561025f57600080fd5b506101a561026e366004611860565b610906565b34801561027f57600080fd5b506101a561028e3660046117ab565b61094a565b34801561029f57600080fd5b506101706102ae3660046117ab565b6001600160a01b03166000908152600080516020611c22833981519152602052604090205460ff1690565b6101a56102e73660046118a2565b610a8d565b3480156102f857600080fd5b50610301610b5d565b60405190815260200161017c565b34801561031b57600080fd5b5061030161032a366004611966565b610c10565b34801561033b57600080fd5b506101a5610c48565b34801561035057600080fd5b506101a561035f3660046117ab565b610c5c565b34801561037057600080fd5b506101a5610ce6565b34801561038557600080fd5b506033546040516001600160a01b03909116815260200161017c565b3480156103ad57600080fd5b506101a56103bc366004611860565b610df0565b3480156103cd57600080fd5b506101706103dc3660046117ab565b50600190565b3480156103ee57600080fd5b506103016103fd3660046119b1565b610e93565b34801561040e57600080fd5b5061030161041d366004611966565b6001600160a01b03928316600090815260ca602090815260408083209486168352938152838220929094168152925290205490565b34801561045e57600080fd5b5061017061046d3660046117ab565b610ec0565b34801561047e57600080fd5b506001610170565b34801561049257600080fd5b506101a56104a13660046117ab565b610ede565b60006001600160a01b03851615806104c357506104c38286610f54565b156104d0575060016105da565b60006104dc838761102b565b90506104e781610ec0565b156104f65760019150506105da565b6000610502848761102b565b905061050d81610ec0565b61051c576001925050506105da565b6001600160a01b03808516600090815260c96020908152604080832093851683529290522054851115610554576000925050506105da565b61055f84828461115c565b1561056f576001925050506105da565b6001600160a01b03848116600081815260c9602090815260408083208686168085529083528184205494845260ca83528184209084528252808320948716835293905291909120546105c29087906119ea565b11156105d3576000925050506105da565b6001925050505b949350505050565b336000908152600080516020611c22833981519152602081905260409091205460ff1661062a5760405162461bcd60e51b815260040161062190611a0b565b60405180910390fd5b600080516020611c228339815191526001600160a01b03831661068f5760405162461bcd60e51b815260206004820152601f60248201527f696e76616c696420617267756d656e74202d207a65726f2061646472657373006044820152606401610621565b336001600160a01b038416146106b75760405162461bcd60e51b815260040161062190611a42565b6001600160a01b038316600081815260208390526040808220805460ff19169055517f408b49d9be1c914c52a0227e18a077e5a892dddf32a26cfa94a5d9708fad77189190a2505050565b61070a611174565b61071381610ec0565b1561073c576040516345d1498b60e01b81526001600160a01b0382166004820152602401610621565b6001600160a01b038116600081815260cb6020908152604091829020805460ff1916600117905590519182527fca661533a567195376b79f20fcbcca20e62ceea1d43efacba5f8028329da8e6b91015b60405180910390a150565b336000908152600080516020611c22833981519152602081905260409091205460ff166107d65760405162461bcd60e51b815260040161062190611a0b565b60006107e2338661102b565b905060006107f0338661102b565b90506107fb81610ec0565b801561080e575061080c3387610f54565b155b1561081f5761081f338284876111ce565b505050505050565b6001600160a01b037f000000000000000000000000000000000000000000000000000000000000000016300361086f5760405162461bcd60e51b815260040161062190611a83565b7f00000000000000000000000000000000000000000000000000000000000000006001600160a01b03166108b8600080516020611bdb833981519152546001600160a01b031690565b6001600160a01b0316146108de5760405162461bcd60e51b815260040161062190611acf565b6108e781611225565b604080516000808252602082019092526109039183919061122d565b50565b336000908152600080516020611c22833981519152602081905260409091205460ff166109455760405162461bcd60e51b815260040161062190611a0b565b505050565b600080516020611c228339815191526001600160a01b0382166109af5760405162461bcd60e51b815260206004820152601f60248201527f696e76616c696420617267756d656e74202d207a65726f2061646472657373006044820152606401610621565b6001600160a01b03821660009081526020829052604090205460ff1615610a185760405162461bcd60e51b815260206004820152601860248201527f636f6d706c69616e636520616c726561647920626f756e6400000000000000006044820152606401610621565b336001600160a01b03831614610a405760405162461bcd60e51b815260040161062190611a42565b6001600160a01b038216600081815260208390526040808220805460ff19166001179055517f1f7b76c58fb697eb53c6c7c1becb96911516a136e24d7ced386b2355358b75a39190a25050565b6001600160a01b037f0000000000000000000000000000000000000000000000000000000000000000163003610ad55760405162461bcd60e51b815260040161062190611a83565b7f00000000000000000000000000000000000000000000000000000000000000006001600160a01b0316610b1e600080516020611bdb833981519152546001600160a01b031690565b6001600160a01b031614610b445760405162461bcd60e51b815260040161062190611acf565b610b4d82611225565b610b598282600161122d565b5050565b6000306001600160a01b037f00000000000000000000000000000000000000000000000000000000000000001614610bfd5760405162461bcd60e51b815260206004820152603860248201527f555550535570677261646561626c653a206d757374206e6f742062652063616c60448201527f6c6564207468726f7567682064656c656761746563616c6c00000000000000006064820152608401610621565b50600080516020611bdb83398151915290565b6001600160a01b03928316600090815260ca602090815260408083209486168352938152838220929094168152925290206001015490565b610c50611174565b610c5a6000611398565b565b610c64611174565b610c6d81610ec0565b610c9557604051630120783160e61b81526001600160a01b0382166004820152602401610621565b6001600160a01b038116600081815260cb6020908152604091829020805460ff1916905590519182527fc59743ca46d36b7cf42c36211a2fbef12e10aec1bfc9d39eccf91b6976a260f5910161078c565b600054610100900460ff1615808015610d065750600054600160ff909116105b80610d205750303b158015610d20575060005460ff166001145b610d835760405162461bcd60e51b815260206004820152602e60248201527f496e697469616c697a61626c653a20636f6e747261637420697320616c72656160448201526d191e481a5b9a5d1a585b1a5e995960921b6064820152608401610621565b6000805460ff191660011790558015610da6576000805461ff0019166101001790555b610dae6113ea565b8015610903576000805461ff0019169055604051600181527f7f26b83ff96e1f2b6a682f133852f6798a09c465da95921460cefb38474024989060200161078c565b336000908152600080516020611c22833981519152602081905260409091205460ff16610e2f5760405162461bcd60e51b815260040161062190611a0b565b33600081815260c9602090815260408083206001600160a01b0388168085529083529281902086905580519283529082018590527f14902018104a24b79253a1e29e979c8b957bc80c71b062ca985f879888e6ea1e910160405180910390a2505050565b6001600160a01b03808316600090815260c960209081526040808320938516835292905220545b92915050565b6001600160a01b0316600090815260cb602052604090205460ff1690565b610ee6611174565b6001600160a01b038116610f4b5760405162461bcd60e51b815260206004820152602660248201527f4f776e61626c653a206e6577206f776e657220697320746865207a65726f206160448201526564647265737360d01b6064820152608401610621565b61090381611398565b6000826001600160a01b0316636a3edf286040518163ffffffff1660e01b8152600401602060405180830381865afa158015610f94573d6000803e3d6000fd5b505050506040513d601f19601f82011682018060405250810190610fb89190611b1b565b6040516307feec1960e21b81526001600160a01b0384811660048301529190911690631ffbb06490602401602060405180830381865afa158015611000573d6000803e3d6000fd5b505050506040513d601f19601f820116820180604052508101906110249190611b38565b9392505050565b6000826001600160a01b0316636a3edf286040518163ffffffff1660e01b8152600401602060405180830381865afa15801561106b573d6000803e3d6000fd5b505050506040513d601f19601f8201168201806040525081019061108f9190611b1b565b6001600160a01b031663134e18f46040518163ffffffff1660e01b8152600401602060405180830381865afa1580156110cc573d6000803e3d6000fd5b505050506040513d601f19601f820116820180604052508101906110f09190611b1b565b604051633c3ad79560e21b81526001600160a01b038481166004830152919091169063f0eb5e5490602401602060405180830381865afa158015611138573d6000803e3d6000fd5b505050506040513d601f19601f820116820180604052508101906110249190611b1b565b60004261116a858585610c10565b1115949350505050565b6033546001600160a01b03163314610c5a5760405162461bcd60e51b815260206004820181905260248201527f4f776e61626c653a2063616c6c6572206973206e6f7420746865206f776e65726044820152606401610621565b6111d9848484611421565b6001600160a01b03808516600090815260ca60209081526040808320878516845282528083209386168352929052908120805483929061121a9084906119ea565b909155505050505050565b610903611174565b7f4910fdfa16fed3260ed0e7147f7cc6da11a60208b5b9406d12a635614ffd91435460ff1615611260576109458361147b565b826001600160a01b03166352d1902d6040518163ffffffff1660e01b8152600401602060405180830381865afa9250505080156112ba575060408051601f3d908101601f191682019092526112b791810190611b5a565b60015b61131d5760405162461bcd60e51b815260206004820152602e60248201527f45524331393637557067726164653a206e657720696d706c656d656e7461746960448201526d6f6e206973206e6f74205555505360901b6064820152608401610621565b600080516020611bdb833981519152811461138c5760405162461bcd60e51b815260206004820152602960248201527f45524331393637557067726164653a20756e737570706f727465642070726f786044820152681a58589b195555525160ba1b6064820152608401610621565b50610945838383611517565b603380546001600160a01b038381166001600160a01b0319831681179093556040519116919082907f8be0079c531659141344cd1fd0a4f28419497f9722a3daafe3b4186f6b6457e090600090a35050565b600054610100900460ff166114115760405162461bcd60e51b815260040161062190611b73565b611419611542565b610c5a611571565b61142c83838361115c565b15610945576001600160a01b03808416600090815260ca602090815260408083208685168452825280832093851683529290522061146d4262278d006119ea565b600182015560009055505050565b6001600160a01b0381163b6114e85760405162461bcd60e51b815260206004820152602d60248201527f455243313936373a206e657720696d706c656d656e746174696f6e206973206e60448201526c1bdd08184818dbdb9d1c9858dd609a1b6064820152608401610621565b600080516020611bdb83398151915280546001600160a01b0319166001600160a01b0392909216919091179055565b61152083611598565b60008251118061152d5750805b156109455761153c83836115d8565b50505050565b600054610100900460ff166115695760405162461bcd60e51b815260040161062190611b73565b610c5a6115fd565b600054610100900460ff16610c5a5760405162461bcd60e51b815260040161062190611b73565b6115a18161147b565b6040516001600160a01b038216907fbc7cd75a20ee27fd9adebab32041f755214dbc6bffa90cc0225b39da2e5c2d3b90600090a250565b60606110248383604051806060016040528060278152602001611bfb6027913961162d565b600054610100900460ff166116245760405162461bcd60e51b815260040161062190611b73565b610c5a33611398565b6060600080856001600160a01b03168560405161164a9190611bbe565b600060405180830381855af49150503d8060008114611685576040519150601f19603f3d011682016040523d82523d6000602084013e61168a565b606091505b509150915061169b868383876116a5565b9695505050505050565b6060831561171457825160000361170d576001600160a01b0385163b61170d5760405162461bcd60e51b815260206004820152601d60248201527f416464726573733a2063616c6c20746f206e6f6e2d636f6e74726163740000006044820152606401610621565b50816105da565b6105da83838151156117295781518083602001fd5b8060405162461bcd60e51b815260040161062191906117ec565b6001600160a01b038116811461090357600080fd5b6000806000806080858703121561176e57600080fd5b843561177981611743565b9350602085013561178981611743565b92506040850135915060608501356117a081611743565b939692955090935050565b6000602082840312156117bd57600080fd5b813561102481611743565b60005b838110156117e35781810151838201526020016117cb565b50506000910152565b602081526000825180602084015261180b8160408501602087016117c8565b601f01601f19169190910160400192915050565b60008060006060848603121561183457600080fd5b833561183f81611743565b9250602084013561184f81611743565b929592945050506040919091013590565b6000806040838503121561187357600080fd5b823561187e81611743565b946020939093013593505050565b634e487b7160e01b600052604160045260246000fd5b600080604083850312156118b557600080fd5b82356118c081611743565b9150602083013567ffffffffffffffff808211156118dd57600080fd5b818501915085601f8301126118f157600080fd5b8135818111156119035761190361188c565b604051601f8201601f19908116603f0116810190838211818310171561192b5761192b61188c565b8160405282815288602084870101111561194457600080fd5b8260208601602083013760006020848301015280955050505050509250929050565b60008060006060848603121561197b57600080fd5b833561198681611743565b9250602084013561199681611743565b915060408401356119a681611743565b809150509250925092565b600080604083850312156119c457600080fd5b82356119cf81611743565b915060208301356119df81611743565b809150509250929050565b80820180821115610eba57634e487b7160e01b600052601160045260246000fd5b6020808252601e908201527f6f6e6c7920626f756e6420636f6d706c69616e63652063616e2063616c6c0000604082015260600190565b60208082526021908201527f6f6e6c7920636f6d706c69616e636520636f6e74726163742063616e2063616c6040820152601b60fa1b606082015260800190565b6020808252602c908201527f46756e6374696f6e206d7573742062652063616c6c6564207468726f7567682060408201526b19195b1959d85d1958d85b1b60a21b606082015260800190565b6020808252602c908201527f46756e6374696f6e206d7573742062652063616c6c6564207468726f7567682060408201526b6163746976652070726f787960a01b606082015260800190565b600060208284031215611b2d57600080fd5b815161102481611743565b600060208284031215611b4a57600080fd5b8151801515811461102457600080fd5b600060208284031215611b6c57600080fd5b5051919050565b6020808252602b908201527f496e697469616c697a61626c653a20636f6e7472616374206973206e6f74206960408201526a6e697469616c697a696e6760a81b606082015260800190565b60008251611bd08184602087016117c8565b919091019291505056fe360894a13ba1a3210667c828492db98dca3e2076cc3735a920a3ca505d382bbc416464726573733a206c6f772d6c6576656c2064656c65676174652063616c6c206661696c6564f6cc97de1266c180cd39f3b311632644143ce7873d2927755382ad4b39e8ae00a2646970667358221220f90ed535534d5d3bcc0c3357fcec90a80f758b6f13a8f0edd3a3cf070453c98764736f6c63430008110033",
  "linkReferences": {},
  "deployedLinkReferences": {}
}